:10000000B5C0CFC0CEC0CDC0CCC0CBC0CAC0C9C0A7
:10001000C8C0C7C0C6C0C5C0C4C0C3C0C2C0C1C0BC
:1000200070C3BFC0BEC0BDC0BCC0E6C4BAC0B9C00A
:10003000B8C0B7C0DAC2DDC2DEC2DFC2E0C2E1C210
:10004000E2C2E3C2E4C2E5C2E6C2E7C2E8C2E9C274
:10005000EAC2F4C2F7C2F8C2F9C2FAC2FBC2FCC2D9
:10006000FDC2FEC2FFC200C301C302C303C304C377
:1000700023C6E8C63FC5E6C6E5C6FAC41DC6E2C645
:10008000BBC6E0C6DFC60AC5AFC6DCC6B5C6DAC6A3
:10009000D9C61AC5A9C6D6C62DC5D4C6D3C630C5BD
:1000A0000BC6D0C67AC6CEC6CDC640C505C6CAC622
:1000B0002CC6C8C6C7C650C597C6C4C626C6C2C6C3
:1000C000C1C660C591C6BEC668C6BCC6BBC670C543
:1000D000F3C5B8C61AC6B6C6B5C68BC5EDC5B2C699
:1000E0005CC6B0C6AFC6A6C5E7C5ACC656C6AAC6EE
:1000F000A9C6C1C5E1C5A6C67FC6A4C6A3C6E4C538
:1001000073C6A0C602C69EC69DC605C66DC69AC663
:1001100044C698C697C620C667C694C63EC692C651
:1001200091C641C661C68EC667C68CC68BC66AC6F6
:1001300096C6EBC6EAC6E9C6E8C6E7C6E6C6E5C6A1
:10014000E4C6E3C6E2C6E1C6ADC6B1C6B0C6AFC638
:1001500092C69CC6DAC6D9C6D8C6D7C6D6C6D5C634
:10016000A1C6A5C6A4C6A3C6A9C6C7C611241FBEDC
:10017000CFEFD4E0DEBFCDBF11E0A0E0B1E0E2EA16
:10018000F1E102C005900D92A630B107D9F711E058
:10019000A6E0B1E001C01D92A235B107E1F7F7D2A8
:1001A000FEC72ECF0F931F939C018B0181E0B901F5
:1001B000BAD182E0B801B7D11F910F9108950F9382
:1001C0001F939C018B0183E0B901ADD184E0B8019C
:1001D000AAD11F910F910895613051F0613028F03C
:1001E000623049F0643071F40AC060E07FE005C01D
:1001F00060EF70E002C06FE070E095D1089560EFAD
:100200007FE091D108951F93182F34D1813059F098
:10021000813028F0823059F0833089F40CC0812F6E
:100220006FEF7FE00BC0812F60E07FE007C0812F80
:1002300060EF70E003C0812F6FE070E074D11F9118
:100240000895EF92FF920F931F939C017B01B901D8
:10025000A9DF00E010E0C801B701F8D21F910F91AB
:10026000FF90EF9008951F93CF93DF9358D1EC0147
:1002700081E000D1182F82E0FDD0982F112321F0CA
:1002800081E08093070111C080910701882369F004
:10029000809102018F5F80930201833010F01092F1
:1002A00002011092070110920601992321F081E0CA
:1002B0008093080111C080910801882369F0809122
:1002C00003018F5F80930301833010F010920301CC
:1002D000109208011092060180910001882361F0BC
:1002E000815080930001882349F583E080930601C3
:1002F00081E08093090122C0279700F180E090E01F
:1003000060E070E05CDF80910601882329F080E0E6
:1003100091E062E370E095DF80E090E062E370E0FE
:1003200090DF80E091E062E370E08BDF80E092E0BC
:1003300066E970E086DF85E0809306019091060112
:10034000992369F1809101018F5F809301018F34BE
:1003500091F08035A1F0883211F580910901882350
:1003600029F08FEF9FE060E070E01CDF8FEF9FE0EF
:1003700060E070E013C091509093060110C010929D
:10038000010180910901882329F080E090E06FEF5E
:100390007FE008DF80E090E06FEF7FE010DF80918A
:1003A0000601882379F480E090E060E070E007DFE8
:1003B00081E06091020110DF82E0609103010CDFB7
:1003C000109209016AE070E080E090E03FD2DF9196
:1003D000CF911F91089564E170E080E090E036D203
:1003E0000895CF93DF93F7DF8EEF91E0ADD68F5F67
:1003F0009F4F29F5F0DF8EEF91E06EEF7FEFA9D6EA
:10040000EADF8EEF91E06EEF7FEFA3D6E4DF8EEFB1
:1004100091E06EEF7FEF9DD6DEDF81E0F4DE82E0DB
:10042000F2DE7DD0079728F080E090E060E070E099
:1004300004C08FEF9FE06FEF7FE0C1DEEDCF6CED8A
:1004400075E080E090E002D2C0E0D0E0BE0194E030
:10045000660F771F9A95E1F79C2F8827682B792BD9
:10046000CB01A0DEB8DF2196C031D10579F7DF914D
:10047000CF910895FF920F931F93982F80910B01B6
:100480008230A1F4913011F480E004C0923009F080
:1004900041C084E060E01CD296958795969587953B
:1004A0008F3F910509F0B0F5809535C0913071F41A
:1004B00080E060E00DD2F82E81E060E009D2082FE4
:1004C00082E060E005D2182F83E00FC0923011F572
:1004D00084E060E0FDD1F82E85E060E0F9D1082FDE
:1004E00086E060E0F5D1182F87E060E0F1D1482F79
:1004F000F0FE02C081E00FC0812F90E0202F30E09D
:10050000822B932B80FF02C082E005C040FF02C017
:1005100083E001C080E01F910F91FF90089588E073
:1005200062E0D6D10895833051F0843018F48130E0
:10053000C8F003C08430B1F40CC0A0D0089595B1C8
:10054000672B11F480E001C080E89F77892B85B983
:10055000089595B1672B11F480E001C080E49F7B82
:10056000892B85B9089580910401882361F4E4E022
:10057000F0E081E28093570084918A3011F486E69E
:1005800003C08F3019F487E680930A010DD071D132
:1005900081E060E070E072D082E060E070E06ED0F8
:1005A00081E080930B0108958BB188668BB98AB185
:1005B00088668AB984B1866C84B983EA84BD92E086
:1005C00095BDEEE6F0E080818160808383E28093D8
:1005D000B0009093B100089590E0FC013197EF30A6
:1005E000F10528F4E65EFF4F09948EEF08958FEF32
:1005F00008958CEF08958AEF089587EF089583EFAB
:1006000008958EEE089588EE089580EE089586EDA3
:1006100008958BEC08958FEB089582EB089583EA9B
:10062000089581E908958DE7089590E0FC013197E0
:10063000EF30F10528F4E75DFF4F09948DEF089541
:100640008FEF08958AEF089585EF089580EF08955C
:1006500088EE08958EED089583ED089583EC089556
:1006600080EB08958BE9089584E808958BE608955A
:100670008EE408958BE2089585E00895CF93DF938B
:10068000EB018130E9F47093130160931201CB0107
:1006900080709F70892FA0DF80930C01CE01807F36
:1006A000907074E0969587957A95E1F7BEDF809318
:1006B0000D019E012F70822FB8DF80930E011EC0A6
:1006C0008230E1F47093150160931401CB018070C6
:1006D0009F70892F81DF80930F01CE01807F907002
:1006E00064E0969587956A95E1F79FDF8093100106
:1006F0009E012F70822F99DF80931101DF91CF919E
:1007000008951F920F920FB60F9211242F933F93CB
:100710004F935F936F937F938F939F93AF93BF9309
:10072000EF93FF9380911601882379F0299A2A98F4
:1007300080910F0187BD8091100188BD80911101CA
:100740008093B400109216010FC02A9A29988091C4
:100750000C0187BD80910D0188BD80910E018093B1
:10076000B40081E08093160118D0FF91EF91BF9102
:10077000AF919F918F917F916F915F914F913F9139
:100780002F910F900FBE0F901F9018950895FEDFC8
:100790007894E9DE26DE67DDFECF80911B01909123
:1007A0001C0180509F4F90931C0180931B018091EE
:1007B0001B0190911C01885E9340E8F080911B0121
:1007C00090911C01885E934090931C0180931B01C3
:1007D0008091170190911801A0911901B0911A010F
:1007E0000196A11DB11D8093170190931801A0934C
:1007F0001901B0931A010895EF92FF920F931F937E
:100800009B01AC012150304040405040F894809111
:10081000170190911801A0911901B0911A01790165
:100820008A01E81AF90A0A0B1B0B17FD09C083B7E6
:10083000816083BF7894889583B78E7F83BFE6CF2E
:1008400078941F910F91FF90EF900895EFB7F8946F
:1008500020911701309118014091190150911A010E
:10086000EFBF260F371F481F591FCA01B901C4DF48
:10087000089581E08093050183E080934E018DEC23
:1008800080937A0087B18C6387B9209A88B183609E
:1008900088B93D9A3C9A3B9A3A9A209A80910A01EB
:1008A000873609F43D980FB607FE07C090911F01E7
:1008B00080911F019817E1F3089581EE90E09093E5
:1008C0004901809348019093330180933201089548
:1008D000CF93DF93E82F662361F48FB7F894F0E0AD
:1008E000EE0FFF1FE05EFE4F0190F081E02D8FBF05
:1008F0006DC0613069F42FB7F894E55FF0E0EE0F5A
:10090000FF1FE05EFE4F808191812FBFFC015EC022
:10091000623009F059C0855FE83071F54FB7F8943F
:100920002091300130913101E82FF0E0EE0FFF1FF0
:10093000E05EFE4F0190F081E02DE21BF30B809111
:100940000401813049F4EB30F1051CF4E0E0F0E003
:1009500001C03A97F695E795C90165E096958795A8
:100960006A95E1F78E179F0718F0E0E0F0E002C00B
:10097000E81BF90B4FBF26C0CE2FD0E0A82FB0E068
:10098000E83078F42FB7F894CC0FDD1FC05EDE4F4F
:10099000AA0FBB1FA05EBE4FE881F9818D919C918B
:1009A0000EC02FB7F894AA0FBB1FA05EBE4FCC0F8E
:1009B000DD1FC05EDE4FED91FC9188819981E81BBF
:1009C000F90B2FBFF7FF02C0E0E0F0E0CF01DF91AD
:1009D000CF910895633328F080FD09C0883028F056
:1009E00006C080FF06C0893020F48E5F089581E044
:1009F000089580E0089508951F920F920FB60F9208
:100A000011240F931F932F933F934F935F936F93F3
:100A10007F938F939F93AF93BF93CF93DF93EF9386
:100A2000FF93C0917800D0917900789410914E0195
:100A3000123009F409C2133030F4112371F011306F
:100A400009F01FC3CBC0143009F4BEC2143008F43F
:100A500064C2153009F015C302C300914F01E02FA5
:100A6000F0E0E033F10508F0EDC1E85CFF4F0994D8
:100A70006091500170915101C617D70718F060E0DE
:100A800070E002C06C1B7D0B7093510160935001AC
:100A900070933701609336014598C0C06091500152
:100AA00070915101C617D70718F060E070E002C0DE
:100AB0006C1B7D0B70935101609350017093390151
:100AC000609338014498CBC06091500170915101FE
:100AD000C617D70718F060E070E002C06C1B7D0BF2
:100AE000709351016093500170933B0160933A0100
:100AF0004498D6C0D0935101C0935001459AA2C1E9
:100B00006091500170915101C617D70718F060E04D
:100B100070E002C06C1B7D0B70935101609350011B
:100B200070933D0160933C014598E3C06091500192
:100B300070915101C617D70718F060E070E002C04D
:100B40006C1B7D0B709351016093500170933F01BA
:100B500060933E014398F4C060915001709151013F
:100B6000C617D70718F060E070E002C06C1B7D0B61
:100B70007093510160935001709341016093400163
:100B80004298FFC06091500170915101C617D7077C
:100B900018F060E070E002C06C1B7D0B7093510197
:100BA000609350017093430160934201429810C1D9
:100BB0006091500170915101C617D70718F060E09D
:100BC00070E002C06C1B7D0B70935101609350016B
:100BD0007093450160934401439829C100914F01EE
:100BE000E02FF0E0E033F10508F02CC1E859FF4FA9
:100BF00009946091500170915101C617D70718F000
:100C000060E070E002C06C1B7D0B7093510160933B
:100C1000500170933701609336014298769567953D
:100C20007695679580912001D5DE80932001109202
:100C3000210108C16091500170915101C617D70779
:100C400018F060E070E002C06C1B7D0B70935101E6
:100C50006093500170933901609338014398769501
:100C600067957695679580912201B4DE8093220185
:100C700010922301E7C06091500170915101C61795
:100C8000D70718F060E070E002C06C1B7D0B70931A
:100C900051016093500170933B0160933A01439876
:100CA00076956795769567958091240193DE80937C
:100CB000240110922501C6C080E480937C004098F6
:100CC000389A3898409ABEC0609150017091510195
:100CD000C617D70718F060E070E002C06C1B7D0BF0
:100CE000709351016093500170933D0160933C01FA
:100CF00044987695679576956795809126016ADE8A
:100D000080932601109227019DC0D0935101C0937A
:100D10005001429A97C06091500170915101C617DD
:100D2000D70718F060E070E002C06C1B7D0B709379
:100D300051016093500170933F0160933E014298CE
:100D400076956795769567958091280143DE809327
:100D500028011092290176C06091500170915101D3
:100D6000C617D70718F060E070E002C06C1B7D0B5F
:100D70007093510160935001709341016093400161
:100D80004398769567957695679580912A0122DE3E
:100D900080932A0110922B0155C0D0935101C0932A
:100DA0005001439A4FC06091500170915101C61794
:100DB000D70718F060E070E002C06C1B7D0B7093E9
:100DC0005101609350017093430160934201439835
:100DD000769567957695679580912C01FBDD8093DC
:100DE0002C0110922D012EC081E480937C0041984B
:100DF000399A3998419A26C0D0935101C093500135
:100E0000449A20C06091500170915101C617D707D4
:100E100018F060E070E002C06C1B7D0B7093510114
:100E20006093500170934501609344014498769516
:100E300067957695679580912E01CCDD80932E0184
:100E400010922F01802F62C060914F01E62FF0E0D9
:100E5000EE31F10508F059C0E856FF4F0994429A67
:100E6000439A449A3A9A3B9A3C9A38983998409ACD
:100E7000419A80E414C0809150019091510196955F
:100E80008795409120015091210122C0809150010D
:100E900090915101909321018093200181E48093EE
:100EA0007C0033C0D0935101C09350012EC080917B
:100EB0005001909151018C0F9D1F1AC080915001DB
:100EC0009091510196958795409128015091290163
:100ED0009A01A4E0220F331FAA95E1F7241B350BDA
:100EE000820F931F0796F4E096958795FA95E1F7A0
:100EF000909351018093500108C0809150019091CE
:100F000051019093290180932801862F8F5F809350
:100F10004F01803308F4B5C054C020914F01222303
:100F200011F486EC56C0263041F486EC80937C00A8
:100F300046983E9A3E98469A8EC0283009F44EC094
:100F4000293009F454C02A3009F451C02B30A9F4D7
:100F500080915001909151018C0F9D1F90935101F0
:100F600080935001969587959695879590931E014D
:100F700080931D01209A289A6EC02E3079F12F306F
:100F8000B1F12031A1F1213109F065C0809150010A
:100F9000909151018C0F9D1F9093510180935001AE
:100FA00096958795969587959093470180934601EE
:100FB00080911D0190911E01909331018093300129
:100FC000289810924F015DC020914F01222321F4F7
:100FD00088EC80937C003FC0243029F4D0935101E9
:100FE000C093500138C0253011F0263059F480915B
:100FF0005001909151018C0F9D1F9093510180934E
:10100000500129C0273039F580915001909151014C
:101010008C0F9D1F90935101809350019093350147
:101020008093340140914A0150914B019A0163E051
:10103000220F331F6A95E1F7241B350B820F931F94
:10104000049633E0969587953A95E1F790934B0196
:1010500080934A01B6CF2F5F20934F0112C0909129
:101060004F01992321F48EE480937C0007C09230D5
:1010700029F4D0933301C0933201A3CF9F5F9093A3
:101080004F0180914F018823D9F5133010F483E08C
:1010900010C0153020F41F5F10934E010FC08091D7
:1010A0000A01863649F080910B01813011F08230BF
:1010B00019F480934E0102C010924E0180914E01AE
:1010C0008330F0F498DC80911F018F5F80931F01C3
:1010D00080914C0190914D01880F991F90934D0183
:1010E00080934C0180910501882351F010920501F5
:1010F000809134019091350190934B0180934A0186
:1011000080914C0190914D018C0F9D1F90934D014A
:1011100080934C0180917A00806480937A00FF91E3
:10112000EF91DF91CF91BF91AF919F918F917F917F
:101130006F915F914F913F912F911F910F910F9060
:101140000FBE0F901F901895A8E1B0E042E050E06C
:1011500006C00196272F12D010C0DC01CB01FC0184
:10116000F999FECF06C0F2BDE1BDF89A319600B400
:101170000D9241505040B8F70895262FF999FECFAF
:1011800092BD81BDF89A019700B4021639F01FBADA
:1011900020BD0FB6F894FA9AF99A0FBE0895F89404
:0211A000FFCF7F
:0611A20064640404010175
:00000001FF
