:100000000C94F2010C941A020C941A020C94370608
:100010000C9437060C9437060C941A020C94430582
:100020000C941A020C941A020C941A020C94720486
:100030000C941A020C941A020C941A020C941A02D0
:100040000C94700F0C941A020C9440040C941A0433
:100050000C941A020C941A020C941A020C941A02B0
:100060000C9441060C941A0207634236B79BD8A73A
:100070001A39685618AEBAAB558C1D3CB7CC5763CD
:10008000BD6DEDFD753EF6177231BF000000803F7B
:1000900008000000BE922449123EABAAAA2ABECD97
:1000A000CCCC4C3E00000080BEABAAAAAA3E000009
:1000B0000000BF000000803F000000000008417801
:1000C000D3BB4387D1133D190E3CC3BD4282AD2B38
:1000D0003E68EC8276BED98FE1A93E4C80EFFFBE30
:1000E00001C4FF7F3F00000000002000000000006E
:1000F0000030007C82827C00310042FE020000322F
:1001000000468A92620033004492926C0034001CD4
:1001100064FE04003500F292928C0036007C9292CC
:100120004C003700C08E90E00038006C92926C005A
:1001300039006492927C006100042A2A1E00620049
:10014000FE12120C0063000C1212120064000C125A
:1001500012FE0065001C2A2A18006600103E50504E
:100160000067000815151E006800FE101E000069DB
:1001700000002E0000006A0002012E00006B00FE4D
:10018000081412006C0000FE0200006D001E100E2C
:10019000100E6E001E10100E006F000C12120C00DC
:1001A00070001F12120C0071000C12121F0072005E
:1001B0001E08101000730012292512007400103E52
:1001C00012000075001C02021E00761804020418BA
:1001D000007718061C0618007800120C0C12007923
:1001E000001805051E007A0012161A120041007E42
:1001F00088887E004200FE92926C0043007C8282DE
:1002000044004400FE82827C004500FE92928200FF
:100210004600FE9090800047007C82925C0048007F
:10022000FE1010FE00490082FE8200004A000C020F
:1002300002FC004B00FE1028C6004C00FE02020229
:10024000004D00FE403040FE4E00FE403008FE4FA4
:10025000007C8282827C5000FE9090600051007C85
:10026000828A847A5200FE989462005300649292CB
:100270004C00540080FE8080005500FC0202FC000F
:100280005600F00C020CF05700FE043804FE580033
:10029000C63838C60059C0201E20C0005A00869AB1
:1002A000B2C2002C00010E0C00002E000006060059
:1002B00000257254781E2A4E2100007A0000003F6B
:1002C00000204A3000002D0010101010002B0808EC
:1002D0003E0808002F00020C3040002A22140814A7
:1002E00022003A0000140000002200C000C00000FC
:1002F0002328FE28FE28002800007C820000290018
:1003000000827C00003B0002240000007E00408050
:100310004080003B0002240000003D0028282828DF
:10032000007C0000FE0000003E0082442810003CDB
:10033000001028448200400000000000007C447C43
:10034000007C005C547454547C70107C74545C7C4D
:10035000545C40407C7C547C74547C00040020201D
:100360002000000000000000240027002A000000F8
:100370000008000201000003040700000000000064
:1003800000003F065B4F666D7D077F6F777C395EAF
:100390007971BF86DBCFE6EDFD87FFEFF7FCB9DEB5
:1003A000F9F10040000000002300260029000000B1
:1003B0000000250028002B000404040404040404A5
:1003C0000202020202020303030303030102040800
:1003D00010204080010204081020010204081020AF
:1003E0003320192011241FBECFEFD8E0DEBFCDBFD0
:1003F00011E0A0E0B1E0E6ECF2E502C005900D925C
:10040000AE39B107D9F725E0AEE9B1E001C01D92E0
:10041000AE3BB207E1F711E0C1EFD1E004C0219794
:10042000FE010E942427C03FD107C9F70E94FF0F99
:100430000C9456290C940000CF92DF92EF92FF9219
:100440000F931F93CF93DF936C017A018B01C0E070
:10045000D0E0CE15DF0581F0D8016D918D01D60178
:10046000ED91FC910190F081E02DC6010995892B59
:1004700011F02196EECF7E01C701DF91CF911F9140
:100480000F91FF90EF90DF90CF900895FC01538D76
:10049000448D252F30E0842F90E0821B930B54175E
:1004A00010F0CF96089501970895FC01918D828DEB
:1004B000981761F0828DDF01A80FB11D5D968C91B8
:1004C000928D9F5F9F73928F90E008958FEF9FEFC3
:1004D0000895FC01918D828D981731F0828DE80F7F
:1004E000F11D858D90E008958FEF9FEF0895FC0139
:1004F000918D228D892F90E0805C9F4F821B910906
:100500008F739927089584EA92E00E94770221E090
:10051000892B09F420E0822F0895FC01848DDF01EE
:10052000A80FB11DA35ABF4F2C91848D90E0019666
:100530008F739927848FA689B7892C93A089B18955
:100540008C9180648C93938D848D981306C002885F
:10055000F389E02D80818F7D80830895EF92FF9253
:100560000F931F93CF93DF93EC0181E0888F9B8DD6
:100570008C8D981305C0E889F989808185FD24C098
:10058000F62E0B8D10E00F5F1F4F0F731127E02E1B
:100590008C8DE8120CC00FB607FCFACFE889F989F8
:1005A000808185FFF5CFCE010E948D02F1CF8B8D2A
:1005B000FE01E80FF11DE35AFF4FF0820B8FEA892D
:1005C000FB898081806207C0EE89FF896083E889AA
:1005D000F98980818064808381E090E0DF91CF9110
:1005E0001F910F91FF90EF900895CF93DF93EC014F
:1005F000888D8823C9F0EA89FB89808185FD05C043
:10060000A889B9898C9186FD0FC00FB607FCF5CF7C
:10061000808185FFF2CFA889B9898C9185FFEDCFC4
:10062000CE010E948D02E7CFDF91CF91089580E047
:1006300090E0892B29F00E94830281110C94000024
:10064000089585ED8093BC008091BC0084FDFCCFB3
:1006500010927302089540914F02262F30E0240F2C
:10066000311D21323105DCF4209173022430C9F4AC
:10067000FC0180E090E0861758F430914F02219100
:10068000DC01A15DBD4FA30FB11D2C930196F3CFEB
:1006900080914F02680F60934F0280E0089581E0DF
:1006A000089582E0089508958FEF9FEF08958FEFEA
:1006B0009FEF089580912E0290E091958195910988
:1006C0000895CF93DF93CB01EA01642F0E942B039F
:1006D000CE01DF91CF910895CF93DF931F92CDB7D5
:1006E000DEB7698361E0CE0101960E942B0381E0B1
:1006F00090E00F90DF91CF910895089580E090E011
:1007000008950E9411290F931F93CF93DF93EC015B
:1007100088819981009729F02A813B812617370724
:1007200088F48B016F5F7F4F0E944B28009761F028
:10073000998388831B830A832C813D81232B11F4A9
:10074000FC01108281E001C080E0DF91CF911F9118
:100750000F910895EF92FF920F931F93CF93DF9322
:1007600000D0CDB7DEB78C0169831A82FC01E4802A
:10077000F580FFEFEF1AFF0AB7010E948303882379
:1007800081F0F8012081318184819581BE016F5F04
:100790007F4F820F931F0E941F29F801F582E48288
:1007A00081E00F900F90DF91CF911F910F91FF90FB
:1007B000EF900895EF92FF920F931F93CF93DF93E3
:1007C000EC017B018A01BA010E94830328813981EF
:1007D00081110DC02115310519F0C9010E94C227F0
:1007E000198218821D821C821B821A8206C01D83F8
:1007F0000C83B701C9010E941F29CE01DF91CF915F
:100800001F910F91FF90EF900895FC0111821082CB
:1008100013821282158214826115710551F0FB0159
:1008200001900020E9F73197AF01461B570B0C945C
:10083000DA0308951F920F920FB60F9211242F938F
:100840003F934F935F936F937F938F939F93AF9358
:10085000BF93EF93FF9384EA92E00E948D02FF9191
:10086000EF91BF91AF919F918F917F916F915F9128
:100870004F913F912F910F900FBE0F901F901895A1
:100880001F920F920FB60F9211242F938F939F9365
:10089000EF93FF93E091B402F091B5028081E09173
:1008A000BA02F091BB0282FD12C090818091BD021C
:1008B0008F5F8F732091BE02821751F0E091BD02CD
:1008C000F0E0EC55FD4F958F8093BD0201C0808113
:1008D000FF91EF919F918F912F910F900FBE0F90ED
:1008E0001F9018951F920F920FB60F9211242F93FD
:1008F0003F934F935F936F937F938F939F93AF93A8
:10090000BF93EF93FF9380919B0287FF05C01092E6
:100910008500109284001BC020919B02022E000CC7
:10092000330B8091650390E02817390784F4809198
:100930009B02082E000C990BFC01EE0FFF1F8E0F7F
:100940009F1FFC01EF5BFC4F808187FD15C08091EC
:100950009B028F5F80939B0220919B02022E000CD2
:10096000330B8091650390E028173907C4F4809118
:100970009B028C3064F113C080919B02082E000C06
:10098000990BFC01EE0FFF1F8E0F9F1FFC01EF5B09
:10099000FC4F808160E08F770E946609D8CF8091FC
:1009A000840090918500049680349C4918F480E47A
:1009B0009CE905C0809184009091850004969093F5
:1009C0008900809388008FEF80939B023BC0209129
:1009D00084003091850080919B02082E000C990BB9
:1009E000FC01EE0FFF1F8E0F9F1FFC01EF5BFC4F02
:1009F00081819281820F931F909389008093880058
:100A000080919B02082E000C990BFC01EE0FFF1F3A
:100A10008E0F9F1FFC01EF5BFC4F808187FF12C090
:100A200080919B02082E000C990BFC01EE0FFF1F1A
:100A30008E0F9F1FFC01EF5BFC4F808161E08F7781
:100A40000E946609FF91EF91BF91AF919F918F91A5
:100A50007F916F915F914F913F912F910F900FBEBA
:100A60000F901F9018951F93CF93DF93EC01162FD3
:100A700061E089810E94550A612F8981DF91CF91C0
:100A80001F910C9466091F920F920FB60F921124BA
:100A90000F931F932F933F934F935F936F937F9386
:100AA0008F939F93AF93BF93CF93EF93FF9382E086
:100AB0000E943D09C82F80916C0390916D030196AF
:100AC00090936D0380936C038091D203843618F069
:100AD00085E08093670380916703833079F018F491
:100AE000823039F072C0843011F1853009F44AC087
:100AF0006CC0C1116AC01092D20329C0C13009F084
:100B000064C0E091D20381E08E0F8093D203F0E0C5
:100B100080916C0390916D03EA59FC4F808710928D
:100B20006D0310926C0384E0809367034EC0C11183
:100B300014C0E091D20381E08E0F8093D203F0E0E5
:100B400080916C0390916D03EA59FC4F808710925D
:100B50006D0310926C0383E0E7CF80916C0390915A
:100B60006D038536910588F185E0809367030E94C7
:100B7000A40C609368037093690380936A03909355
:100B80006B0323C00E94A40C0091680310916903B9
:100B900020916A0330916B03DC01CB01801B910B28
:100BA000A20BB30B893C9105A105B10540F0109251
:100BB000D20310926D0310926C0382E0B5CFC11185
:100BC00004C010926D0310926C03FF91EF91CF91CE
:100BD000BF91AF919F918F917F916F915F914F9155
:100BE0003F912F911F910F910F900FBE0F901F906B
:100BF00018950F931F93CF93DF938C016F3F71056F
:100C000019F014F06FEF70E0EB0161307F4F14F4D6
:100C1000C1E0DFEFF80186819781C817D90711F18C
:100C2000D783C683D7FD0AC061E0C8010E9433059F
:100C30008FE090E00197F1F7BE010CC060E0C801C1
:100C40000E9433058FE090E00197F1F76627772740
:100C50006C1B7D0BF8018081DF91CF911F910F916B
:100C60000C942B0BDF91CF911F910F9108951F9240
:100C70000F920FB60F9211240F900FBE0F901F907E
:100C800018951F920F920FB60F9211242F933F9336
:100C90004F935F936F937F938F939F93AF93BF9384
:100CA000EF93FF938091B900887F803609F49CC050
:100CB00068F5883209F45BC090F4803109F454C0BF
:100CC00038F4882309F4F2C0883009F44DC0F2C02A
:100CD000883109F44CC0803209F45DC0EBC0803427
:100CE00009F468C048F4803309F455C0883309F02A
:100CF000E1C080937202D4C0803509F44FC08835BA
:100D000009F45DC0883409F0D5C0D2C0883909F42F
:100D1000C3C0A8F4883709F467C038F4883609F4EA
:100D200063C0803709F460C0C5C0883809F4B4C016
:100D3000803909F45FC0803809F0BCC05BC0803BDB
:100D400009F484C038F4803A09F466C0883A09F49A
:100D50007DC0B0C0803C09F4A3C0883C09F4A0C0A9
:100D6000883B09F486C0A6C08091980210C090917B
:100D7000970280919602981770F5E091970281E0B2
:100D80008E0F80939702F0E0EA58FD4F80818093A8
:100D9000BB0085EC82C0809372028AC0E09197020A
:100DA00081E08E0F809397028091BB00F0E0EA58BB
:100DB000FD4F808390919702809196026AC0E091E6
:100DC000970281E08E0F809397028091BB00F0E044
:100DD000EA58FD4F808380917502811169C081E0DE
:100DE0008093740284EA5DC083E080937302109262
:100DF0007102CFCF80917102803208F04DC0E09136
:100E0000710281E08E0F809371028091BB00F0E04F
:100E1000EF5AFD4F8083BDCF85EC8093BC001092CC
:100E2000730280917102803230F4E0917102F0E03F
:100E3000EF5AFD4F10826091710270E081E592E0FF
:100E4000E0E0F0E009951092710234C084E08093F4
:100E500073021092500210924F02E0E0F0E0099508
:100E600080914F02811105C081E080934F02109262
:100E70002F02E091500281E08E0F80935002F0E04B
:100E8000E15DFD4F80818093BB0090915002809185
:100E90004F02981708F47DCF85E88093BC000AC004
:100EA00085EC8093BC001092730204C01092720211
:100EB0000E942103FF91EF91BF91AF919F918F917C
:100EC0007F916F915F914F913F912F910F900FBE46
:100ED0000F901F901895ECE2F2E0DC01AE55BE4F8A
:100EE0008C91808311968C91818380912C029091BA
:100EF0002D02089540E060E080E00E94230D0E94F2
:100F0000C40C60E070E088EE93E00E94F90560E0B8
:100F100070E080EE93E00C94F9056091010170910E
:100F20000201719561957109072E000C880B990BD0
:100F30000E9450222DEC3CEC4CE45FE30E94AF2277
:100F40000E94E62488EE93E00E94F9056091010179
:100F500070910201719561957109072E000C880B43
:100F6000990B0E9450222DEC3CEC4CE45FE30E9474
:100F7000AF220E94E62480EE93E00C94F905609184
:100F8000010170910201072E000C880B990B0E9441
:100F900050222DEC3CEC4CE45FE30E94AF220E9417
:100FA000E62488EE93E00E94F905609101017091BA
:100FB0000201072E000C880B990B0E9450222DEC89
:100FC0003CEC4CE45FE30E94AF220E94E62480EEFA
:100FD00093E00C94F905609101017091020188EE93
:100FE00093E00E94F90560910101709102017195F1
:100FF0006195710980EE93E00C94F905609101010F
:101000007091020171956195710988EE93E00E94DB
:10101000F905609101017091020180EE93E00C945A
:10102000F905682F84EA92E00C94AE02EF92FF92E9
:101030000F931F93CF93DF93162FE72EF82E092FD0
:1010400082E00E941108CEE9D1E0812F9E2DAF2DC4
:10105000B02F88839983AA83BB830E94110889815A
:101060000E9411088A810E9411088B81DF91CF9123
:101070001F910F91FF90EF900C9411088FEF0E9439
:10108000110885E50E9411080C94B00C833081F0A2
:1010900028F4813099F08230A1F008958730A9F0CA
:1010A0008830B9F08430D1F4809180008F7D03C006
:1010B000809180008F7780938000089584B58F772A
:1010C00002C084B58F7D84BD08958091B0008F7774
:1010D00003C08091B0008F7D8093B00008953FB72A
:1010E000F8948091A0029091A102A091A202B091E7
:1010F000A30226B5A89B05C02F3F19F00196A11D9C
:10110000B11D3FBFBA2FA92F982F8827820F911D9D
:10111000A11DB11DBC01CD0142E0660F771F881FE4
:10112000991F4A95D1F70895CF92DF92EF92FF92DF
:101130000F931F93CF93DF9328E030E041E06FEFF0
:1011400070E09FE0C92ED12CC3E2D0E007ED10E0A3
:101150009091FE03E091FF03F0910004592F509508
:10116000F82EF42281F0F894F2805F2152835181AD
:10117000592B5183DE011197F1F75281952B928300
:101180007894F8010FC0F894F2805F215283518166
:10119000592B5183DB011197F1F75281952B9283E3
:1011A0007894F6013197F1F7440F2150310981F617
:1011B000F894E091FF03F091000491818091FE0387
:1011C000809589238183E091FF03F091000492814F
:1011D0008091FE03892B8283E091FF03F09100044C
:1011E00092818091FE038095892382837894DF9198
:1011F000CF911F910F91FF90EF90DF90CF900895C6
:101200009091FE03E091FF03F0910004F894818136
:10121000292F2095822381838281892B8283789450
:101220008DE743E050E0815039F1DA011197F1F791
:1012300030813923C1F3F8948281822382838181B2
:10124000892B81837894ABE7B7E01197F1F7F89495
:101250008181282321838281892B8283A3E1B1E0CC
:101260001197F1F78081982381E009F080E078946C
:10127000E3E6F6E03197F1F70895CF93DF93282F57
:1012800030E0F901E259FC4F8491F901E453FC4F3D
:10129000D491F901E854FC4FC491CC2391F0811111
:1012A0000E944608EC2FF0E0EE0FFF1FEC55FC4FBC
:1012B000A591B491EC91ED2381E090E021F480E0E0
:1012C00002C080E090E0DF91CF9108951F93CF930B
:1012D000DF93282F30E0F901E259FC4F8491F901A6
:1012E000E453FC4FD491F901E854FC4FC491CC2352
:1012F000C1F0162F81110E944608EC2FF0E0EE0F8E
:10130000FF1FE255FC4FA591B4919FB7F8941111BE
:1013100004C08C91D095D82302C0EC91DE2BDC93D5
:101320009FBFDF91CF911F910895EF92FF920F938E
:101330001F93CF93DF938C0161E080913D040E9465
:10134000660960E080913E040E946609C8E0D0EC26
:1013500060E080913D040E9466096D2F617080916C
:101360003E040E94660961E080913D040E94660986
:10137000D695C15069F7E801780180E1E80EF11CCB
:10138000099118E060E080913D040E946609602F99
:10139000607880913E040E94660961E080913D047E
:1013A0000E946609000F115069F7EC16FD0641F71F
:1013B00060E080913D040E94660960E080913E04F7
:1013C0000E94660961E080913D040E94660961E027
:1013D00080913E04DF91CF911F910F91FF90EF908C
:1013E0000C946609CF93DF93D82F61E080913D0480
:1013F0000E94660960E080913E040E946609C8E090
:1014000060E080913D040E9466096D2F61708091BB
:101410003E040E94660961E080913D040E946609D5
:10142000D695C15069F760E080913D040E9466093D
:1014300060E080913E040E94660961E080913D0475
:101440000E94660961E080913E04DF91CF910C9487
:101450006609CF93DF93C0EFD3E060E088850E94F8
:10146000660960E089850E94660961E088850E94BE
:10147000660961E08985DF91CF910C946609CF936D
:10148000DF93C0EFD3E061E088850E94660961E0E8
:1014900089850E94660960E089850E94660960E08E
:1014A0008885DF91CF910C946609CF93DF9390E00C
:1014B000FC01E453FC4F2491FC01E854FC4F84915F
:1014C000882361F190E0880F991FFC01EC59FC4FD3
:1014D000C591D491FC01E255FC4FA591B4916111E5
:1014E00009C09FB7F8948881209582238883EC9166
:1014F0002E230BC0623061F49FB7F8948881322F9D
:10150000309583238883EC912E2B2C939FBF06C0AC
:101510008FB7F894E8812E2B28838FBFDF91CF916E
:101520000895CF93DF93D82FC8E060E08091F8034F
:101530000E946609D0FF02C061E001C060E08091B6
:10154000F9030E946609D69561E08091F8030E9434
:101550006609C15051F760E08091F8030E94660966
:1015600061E08091F9030E94660961E08091F803CF
:101570000E94660960E08091F9030E94550AC8EC58
:101580008091F9030E943D09892B69F0C150C1F790
:1015900061E08091F9030E94550A60E08091F903AF
:1015A0000E946609ECCF61E08091F903DF91CF9151
:1015B0000C94550AEF92FF920F931F93CF93DF93F2
:1015C00000D000D0CDB7DEB78E010F5F1F4F7E0178
:1015D00025E0E20EF11CF801DC012D91CD012193F3
:1015E000EE15FF05C9F7D80180E29C91923208F010
:1015F0008C93EC91F0E0EE57FC4FE491ED93AE1537
:10160000BF0599F70E943F0A80E40E94910A0E9458
:10161000290A0E943F0A8091F5030E94910AF8016D
:1016200081918F010E94910A0E151F05C1F70E943A
:10163000290A0E943F0A8091F6030E94910A0F90A6
:101640000F900F900F90DF91CF911F910F91FF900E
:10165000EF900C94290A1F93CF93DF93182FEB017F
:1016600061E00E94550A209711F460E004C0CF3F6A
:10167000D10539F461E0812FDF91CF911F910C9456
:101680006609E12FF0E0E259FC4FE491E330F9F014
:1016900048F4E130B9F0E230A1F584B5806284BD50
:1016A000C8BD34C0E730E9F0E83019F1E43049F55D
:1016B00080918000806280938000D0938B00C093E3
:1016C0008A0024C084B5806884BDC7BD1FC08091D6
:1016D0008000806880938000D0938900C093880048
:1016E00015C08091B00080688093B000C093B300B3
:1016F0000DC08091B00080628093B000C093B400B0
:1017000005C0C038D1050CF0B5CFAFCFDF91CF9178
:101710001F9108958E3008F08E50877080648093FA
:101720007C0080917A00806480937A0080917A00B6
:1017300086FDFCCF809178002091790090E0922B7B
:1017400008958F929F92AF92BF92CF92DF92EF92C5
:10175000FF926B017C010E946F084B015C01C11478
:10176000D104E104F104F1F00E946F08DC01CB0127
:1017700088199909AA09BB09883E9340A105B105BA
:1017800070F321E0C21AD108E108F10888EE880E52
:1017900083E0981EA11CB11CC114D104E104F10422
:1017A00019F7DDCFFF90EF90DF90CF90BF90AF9013
:1017B0009F908F9008954F925F926F927F928F9239
:1017C0009F92AF92BF92CF92DF92EF92FF920F93D0
:1017D0001F93CF93DF938C016AE00E94AA03C0E0BD
:1017E000D0E044244394F9E05F2EA2ED6A2EB6E4E3
:1017F0007B2E8BE9E82E8CE8F82E9BE4C92E96E42C
:10180000D92E2BEB822E28E0922E3BEFA32E38E12F
:10181000B32EF80184819581C817D90708F06DC0EF
:1018200080819181009729F0FC01EC0FFD1F8081E0
:1018300001C080E0482F409550E060E070E0762FD6
:10184000652F542F4427480F511D611D711DBA018A
:10185000552744274F6F109270004092B00050926D
:10186000B1006092B3007092B4008091B0008062C9
:101870008093B000C7010197F1F78091B0008F7D90
:101880008093B000C6010197F1F780E290E02091CB
:10189000B00020622093B000F40140FF09C03197EE
:1018A000F1F72091B0002F7D2093B000F50108C022
:1018B0003197F1F72091B0002F7D2093B000F40113
:1018C0003197F1F776956795579547950197F9F612
:1018D0008091B00080628093B000C4010197F1F75D
:1018E0008091B0008F7D8093B00064E170E080E073
:1018F00090E00E94A10B21968CCFF89482E0809317
:10190000B0008093B10094E69093B3001092B200BF
:10191000809370007894809367031092D203809133
:10192000660360E0DF91CF911F910F91FF90EF90E0
:10193000DF90CF90BF90AF909F908F907F906F90EF
:101940005F904F900C94550A2FB7F89460919C02C9
:1019500070919D0280919E0290919F022FBF0895E9
:1019600042E050E06BE971E084EA92E00C941C02E2
:10197000CF93C091970461E08C2F0E94550A60E0DC
:101980008C2FCF910C946609A0918604B0918704A6
:1019900040918A0480918204909183049C01220FDB
:1019A000331F820F931F70918404609185045FB789
:1019B000F8942C91342F30953223242BE72FF62FD7
:1019C0008E0F9F1FE817F90781F0419168E02C9373
:1019D00000C047FF3C93440F00C000C000C008F4A3
:1019E0003C9300C06A9599F7EDCF5FBF61E070E06E
:1019F00080E090E00C94A10BA82FB0E0E09182046D
:101A0000F0918304AE17BF07E0F4982F990F890F68
:101A100090E0E0918404F0918504E80FF91F408381
:101A2000E0918404F0918504E80FF91F61834091EF
:101A3000840450918504FA01E80FF91F228381E0A4
:101A4000089580E00895FF920F931F93CF93DF9343
:101A5000182F062FF42EC0E0D0E0809182049091E0
:101A60008304C817D90740F42F2D402F612F8C2FE6
:101A70000E94FC0C2196F1CF81E0DF91CF911F9164
:101A80000F91FF9008951F93CF93DF93162F8093AC
:101A9000800460938104E82FF0E0EE0FFF1FE75B06
:101AA000FE4F818180937F04808180937E04C0E01B
:101AB000D0E08091820490918304C817D90740F444
:101AC00020E040E060E08C2F0E94FC0C2196F1CFDA
:101AD000123019F480917F0402C080917E04282F77
:101AE00030E0F901E453FC4FE491E0938A04F901FA
:101AF000E854FC4FE491F0E0EE0FFF1FE255FC4F7D
:101B000025913491309387042093860461E0DF911E
:101B1000CF911F910C94550A3F924F925F926F9212
:101B20007F928F929F92AF92BF92CF92DF92EF926D
:101B3000FF920F931F93CF93DF934A015B019C01A8
:101B400040E050E060E472E48FE090E00E946D239A
:101B500069017A013090970461E0832D0E94550A53
:101B6000A8EEB3E0A50194010E948C232B013C0157
:101B7000E601D7FC2196D595C7958E01000F111F60
:101B8000000F111F055011090D2C000CEE08FF0865
:101B9000812C912C540184149504A604B704D0F42C
:101BA00061E0832D0E946609C230D10518F0C8019A
:101BB0000197F1F760E0832D0E946609C230D105DC
:101BC00018F0C8010197F1F7A8958C0C9D1CAE1C6C
:101BD000BF1CE1CFDF91CF911F910F91FF90EF904C
:101BE000DF90CF90BF90AF909F908F907F906F903D
:101BF0005F904F903F900895F89482E08093B000FA
:101C00008093B10094E69093B3001092B200809359
:101C1000700078941092D203809367030895CF9256
:101C2000DF92EF92FF920F931F936B017C010E9452
:101C3000A40C609376047093770480937804909357
:101C400079041092750460E080E794E00E94330507
:101C500083E090E00197F1F761E080E794E00E9473
:101C6000330583E290E00197F1F760E080E794E0CC
:101C70000E94330560E0809171040E94550A8091B2
:101C8000710490E0FC01E453FC4F6491FC01E854C2
:101C9000FC4FE491F0E0EE0FFF1FEC55FC4F8591F7
:101CA0009491970186013F70462F0E94BA0F6115EB
:101CB00071058105910551F0DC01CB010196A11D53
:101CC000B11D6C017D012FE0F22203C0C12CD12C8B
:101CD0007601C701B6010E94502260937A04709386
:101CE0007B0480937C0490937D04C701B6011F910F
:101CF0000F91FF90EF90DF90CF900895CF93DF93F7
:101D0000EC0160E089810E94550A89810E943D09A9
:101D100021E0892B09F420E0822FDF91CF910895F3
:101D2000CF92DF92EF92FF92DC01A03282E0B807FF
:101D30000CF03EC0B7FD06C0A53BB1052CF0A4EBEE
:101D4000B0E002C0A0E0B0E08091DA0328E830E023
:101D50006901C81AD10887FDD394CC0CDD1CCC0CCA
:101D6000DD1C0D2C000CEE08FF088091DB0328E53C
:101D700032E0281B310987FD3395220F331F220FD4
:101D8000331FA901330F660B770B9A01AB012C1996
:101D90003D094E095F090E94972324EB30E040E0A3
:101DA00050E00E946D23C20ED31EE41EF51ED60124
:101DB0009091D9039C3098F58091DA0348E850E07F
:101DC000481B510987FD5395440F551F440F551F5C
:101DD000A417B5078CF08091DB0328E532E0281BBF
:101DE000310987FD3395220F331F220F331FAD01B9
:101DF0002A173B070CF4A90142505109440F551F03
:101E00002FB7F894892F90E0FC01EE0FFF1F8E0F83
:101E10009F1FFC01EF5BFC4F528341832FBFFF905C
:101E2000EF90DF90CF900895CF939091D9039C309D
:101E300008F052C0C82F61E00E94550A8091D90372
:101E4000E82FF0E09F01220F331FE20FF31FEF5B3B
:101E5000FC4FCF7790819078C92BC0831092DA0322
:101E60001092DB036CE00E94F0269CE0899FB00199
:101E7000112440E050E09B01240F351FF901EE0FC3
:101E8000FF1F2E0F3F1FF901EF5BFC4F908197FD65
:101E900016C04F5F5F4F4C30510569F781110FC07D
:101EA0001092800082E08093810010928500109251
:101EB0008400B19A80916F00826080936F00E091FE
:101EC000D903F0E0CF01880F991FE80FF91FEF5BEE
:101ED000FC4F8081806880838091D903CF910895E1
:101EE0001F920F920FB60F9211242F933F938F934F
:101EF0009F93AF93BF9380919C0290919D02A0917C
:101F00009E02B0919F023091B30523E0230F2D373D
:101F100020F40196A11DB11D05C026E8230F0296ED
:101F2000A11DB11D2093B30580939C0290939D0247
:101F3000A0939E02B0939F028091A0029091A10273
:101F4000A091A202B091A3020196A11DB11D8093A0
:101F5000A0029093A102A093A202B093A302BF910A
:101F6000AF919F918F913F912F910F900FBE0F9046
:101F70001F901895CF92DF92EF92FF920F931F93CD
:101F8000E82FF92F05C0015011092109310961F12C
:101F9000908196239417B9F305C0015011092109C6
:101FA000310911F1908196239413F7CFC12CD12CD4
:101FB000E12CF12C0AC08FEFC81AD80AE80AF80AF7
:101FC0000C151D052E053F0579F0808186238417A9
:101FD00091F36C2D7D2D8E2D9F2D1F910F91FF90D4
:101FE000EF90DF90CF90089560E070E080E090E0A7
:101FF0001F910F91FF90EF90DF90CF900895CF93B6
:10200000DF93CDB7DEB7A2970FB6F894DEBF0FBE51
:10201000CDBF789484B5826084BD84B5816084BD71
:1020200085B5826085BD85B5816085BD80916E0076
:10203000816080936E0010928100809181008260A7
:1020400080938100809181008160809381008091E4
:1020500080008160809380008091B10084608093D3
:10206000B1008091B00081608093B00080917A00CF
:10207000846080937A0080917A00826080937A00F5
:1020800080917A00816080937A0080917A008068E4
:1020900080937A001092C10065E070E080E090E0EB
:1020A0000E94A10B0E947A0761E08DE00E94550A10
:1020B00060E087E00E94550A61E08DE00E946609B9
:1020C0006CE271E080E090E00E94A10B60E08DE0A6
:1020D0000E94660962E087E00E94430D40E060E0F4
:1020E00080E00E94230D0E94C40C61E070E080E05B
:1020F00090E00E94A10B40E060E08AE00E94230D86
:102100000E94C40C4CE251E060E070E086E291E095
:102110000E948C0D6CE271E080E090E00E94A10BC7
:1021200040E06AE080E00E94230D0E94C40C4CE273
:1021300051E060E070E08AE491E00E948C0D6CE276
:1021400071E080E090E00E94A10B4AE060E080E056
:102150000E94230D0E94C40C4CE251E060E070E04C
:102160008EE591E00E948C0D6CE271E080E090E0E1
:102170000E94A10B4AE06AE08AE00E94230D0E94BF
:10218000C40CE091B402F091B50282E08083E0914A
:10219000B002F091B1021082E091B202F091B3026C
:1021A00080E180831092BC02E091B802F091B90204
:1021B00086E08083E091B602F091B7028081806171
:1021C0008083E091B602F091B702808188608083BD
:1021D000E091B602F091B702808180688083E0913F
:1021E000B602F091B70280818F7D80830E94B80C87
:1021F0000E94FC0D49E050E06BE671E084EA92E059
:102200000E941C024091D7035091D8036091D303E0
:102210007091D40384EA92E00E941C020E94B00CE8
:102220008DE80E94F20981E080933F0480910D01C6
:1022300090910E01A0910F01B09110018B8F9C8F96
:10224000AD8FBE8F8091110190911201A091130169
:10225000B09114018F8F98A3A9A3BAA38091DA013A
:1022600081110DC00E94A40C6093D6017093D70118
:102270008093D8019093D90181E08093DA018EE6B2
:1022800093E090931C0480931B048091D20390E010
:1022900090931E0480931D0420916703253009F05C
:1022A00053C020916E0326582D3540F4833091059C
:1022B00041F480916F0381528931C0F00E94FC0D7E
:1022C00043C083349105D4F380916F0383548F32DC
:1022D000A8F740E050E0BA0182E090E0FC01E2594A
:1022E000FC4F20812850273048F0E8CF80917003C0
:1022F0008850873018F710921A0442C0FC01E15947
:10230000FC4F208127512331A8F476956795579586
:102310004795706802968234910501F780E28093B8
:102320001A04409316045093170460931804709392
:10233000190426C020812850273008F0BFCF769599
:10234000679557954795E6CF809100018130E9F573
:102350000E94A40C0091D6011091D7012091D801C0
:102360003091D901DC01CB01801B910BA20BB30B87
:1023700089379105A105B10510F00C94AE1D25C05B
:1023800081E0809315040E94FC0D109118040E94B6
:10239000A40C6093D6017093D7018093D8019093D9
:1023A000D901812F90E0A0E0B0E080349105A10533
:1023B000B10511F00C943D1E81E0809300019091D5
:1023C0001D02992311F40C942A1E1092100284EA23
:1023D00092E00E947702181619064CF481E080936F
:1023E000100284EA92E00E94550280930F028091CD
:1023F0001002882311F40C94F11B80910F0290912C
:102400000E02853561F491110AC080910D028F3F53
:10241000E1F481E080930C0280930E0216C0809359
:102420000D02992391F0E0910C02E23019F48093AF
:102430000B0207C0E33028F090910B02915090936B
:102440000B02F0E0EE55FE4F808380910C028F5F0F
:10245000843318F480930C0204C010920C02109282
:102460000E0280910E02882311F40C94F11B8091CE
:102470000B0281110C94F11B80910C02843010F43A
:102480000C94F11B10920E021091A50110930A02F8
:102490000091A7018091A601823009F4C3C224F4FF
:1024A000813061F00C94EF1B843011F40C94DF1B2D
:1024B000853011F40C94ED1B0C94EF1B013049F0A6
:1024C0008FEF0E94110885E50E941108812F0E945C
:1024D00011081091A801812F90E0073009F448C13C
:1024E0008CF4023009F491C034F4002309F445C29D
:1024F000013059F194C205300CF43AC1053009F4A9
:1025000055C18DC20E3109F474C254F4013109F47D
:10251000A7C1053109F4DCC10F3009F080C285C1C3
:10252000033209F40FC2023309F474C20F3109F007
:1025300076C2880F991FFC01EB5EFE4F108160E0B0
:10254000812F0E94550A812F5CC22091720430E0D5
:102550008217930769F0880F991FFC01E75BFE4F14
:102560008081809370048181809371041093720440
:102570000E94A40C009176041091770420917804B5
:1025800030917904DC01CB01801B910BA20BB30BC2
:102590004897A105B10518F081E0809375048091FA
:1025A0007504882339F068EB76E580E090E00E94BE
:1025B0000F0E0AC060917A0470917B0480917C04B4
:1025C00090917D040E94E6246B017C01672B682BAF
:1025D000692B31F420EAC22E2AE5D22EE12CF12C0F
:1025E0008FEF0E94110885E50E94110880910A0270
:1025F0000E941108C701B6010E94502220E030E07D
:1026000048E652E40E94742408C22091A901409136
:10261000FC0350E08417950741F4622F70E040916D
:10262000FD0350E06417750759F1880F991FDC010D
:10263000A75BBE4FEC91E093FA0311968C918093C7
:10264000FB031093FC032093FD03223011F40C9440
:10265000FB1D8E2F90E0FC01E453FC4FE491E093CE
:10266000FE03FC01E854FC4FE491F0E0EE0FFF1F85
:10267000EC55FC4F85919491909300048093FF0357
:102680000E9400098CEC0E94940884E40E94940843
:102690000E94A40C6B017C019091FE03E091FF036A
:1026A000F09100048181292F2095822381838281EA
:1026B000892B8283A3E2B0E01197F1F7808189230F
:1026C00011F40C94FE1D0E9400098CEC0E949408E9
:1026D0008EEB0E949408DE011196AE014A5F5F4FB7
:1026E0006FEC70E088E0C82ED12C00E0FF24F3945A
:1026F0001091FE03E091FF03F0910004F894218112
:10270000212B21832281E12EE0942E21228327E0B8
:1027100030E0C9010197F1F72181E222E1822281B3
:10272000212B228323E230E0C9010197F1F72081B8
:102730007894FB013197F1F7122309F00F29FF0C70
:1027400091E0C91AD108A1F60D93A417B50709F0B5
:10275000C9CF69817A81072E000C880B990B0E94E2
:10276000502220E030E040E85DE30E94AF2255C1F6
:102770002091DE0330E08217930781F0880F991FC4
:10278000FC01E75BFE4F80818093DC0381818093B5
:10279000DD031093DE0360E00E94550A60E0809143
:1027A000DD030E94550A8091DD032BC14091A901F0
:1027B0002091130430E08217930769F0880F991F66
:1027C000FC01E75BFE4F808180931104818180933F
:1027D000120410931304413081F460E080911104DD
:1027E0000E94550A809111040E948A0B2091E201F7
:1027F0003091E3018A5E914011C0423099F460E06B
:10280000809112040E94550A809112040E948A0B42
:102810008A5E91402091E4013091E501BC01620F94
:10282000731F51C060E070E04EC02091DE0330E0C5
:102830008217930781F0880F991FFC01E75BFE4F19
:1028400080818093DC0381818093DD031093DE031C
:1028500060E00E94550A8CED93E00E947E0E6BC0F2
:102860002091DE0330E082179307A9F0880F991FAB
:10287000FC01E75BFE4F80818093DC0391819093A4
:10288000DD031093DE0360E00E94550A60E0809152
:10289000DD030E94550A60E08091DC030E94550A26
:1028A0008091DC030E943D098C018CED93E00E9435
:1028B0007E0E61E070E0012B11F460E070E0660FC5
:1028C000771F680F711D072E000C880B990B9FC096
:1028D0002091A9014091DE0350E08417950711F083
:1028E0000C940F1E622F70E04091DF0350E06417DC
:1028F000750711F00C940F1E62E0213091F4809165
:10290000DC030E94550A60E08091DC030E94550AB6
:102910008091DC030E943D0961E0892B69F060E051
:102920000BC08091DD030E94550A8CED93E00E945C
:102930007E0E61E08627682F70E080E090E00E94C4
:102940004E226BC01091A901880F991FFC01EB5E0C
:10295000FE4F008160E0802F0E94550A802F0E9468
:102960008A0B21E00B970CF020E0122781E00E94F7
:102970001108812F0E94110852C01A8219821C82EC
:102980001B821E821D826091D3037091D403611556
:10299000710541F04091D7035091D803CE010196C3
:1029A0000E94DA031D81E12EFE8084E00E9411085E
:1029B000812F0E94110800E010E00E151F05A4F4FD
:1029C0008D819E810817190748F489819A810097A3
:1029D00029F0FC01E00FF11F808101C080E00E941E
:1029E00011080F5F1F4FE9CF89819A810E94C2278A
:1029F00016C060E0812F0E94550A812F0E943D0978
:102A000002C00E948A0BBC01990F880B990B0E948F
:102A1000502203C060E070E0CB010E9416080E94C3
:102A2000B00CDDC61091A801E12FF0E00D3009F4E3
:102A300021C61CF5083009F449C0BCF4033009F480
:102A4000FFC5053009F0C9C61092000186E090E08C
:102A50000E946B07BC0188EE93E00E94F90588E0B4
:102A600090E00E946B07BC012CC00A30F1F00CF41E
:102A700071C00B3009F45AC0B0C6013209F490C6D7
:102A800054F40E3109F463C6003209F46AC6043105
:102A900009F0A3C635C6093209F466C1023309F448
:102AA0008BC6023209F099C667C61092000187E012
:102AB00090E00E946B07BC01193019F488EE93E096
:102AC00002C080EE93E00E94F90587C610920001D3
:102AD0006091A9010091AA01F090AB01E090AC01D6
:102AE000D090AD018091800490E0E817F90711F0D3
:102AF0000C94201E262F30E08091810490E028174E
:102B0000390711F00C94201E002341F02D2D4E2D7D
:102B10006F2D8FEF800F0E94FC0C05C04D2D6E2D88
:102B20008F2D0E94230D0E94C40C57C62091A9012D
:102B3000CF01880F991FFC01E75BFE4F213011F494
:102B4000808101C081811091AA01153B08F045C622
:102B500090E02BC68091F20390E0E817F90769F145
:102B60001093F203EE0FFF1FE75BFE4F818180930E
:102B7000F10390819093F0038093F8039093F9030D
:102B800061E00E94550A61E08091F9030E94550AB4
:102B900080E48093F40380EC8093F5038AE88093CB
:102BA000F6038F8D98A1A9A1BAA189839A83AB83DB
:102BB000BC83CE0101960E94DA0A8091A90180931C
:102BC0009E018091AA0180939F018091AB01809327
:102BD000A0018091AC018093A10140909E01509092
:102BE0009F016090A0017090A10119821A821B823E
:102BF0001C8220E030E0A901C301B2010E944922F9
:102C000087FF08C077FA709477F8709481E289831F
:102C100011E001C010E0BDEFAB2EBB24BA9403E07D
:102C2000202E312C912C00E037FC4CC0B1016F5F9D
:102C30007F4F072E000C880B990B0E9450229B019E
:102C4000AC0160E070E080E291E40E9479256B01C4
:102C50007C019B01AC01C301B2010E9474240E945B
:102C60001C256B8B7C8B8D8B9E8BB101032C000CF8
:102C7000880B990B0E9450229B01AC0160E070E030
:102C800080E291E40E9479256F8B788F898F9A8FEB
:102C90002B893C894D895E89C701B6010E94AF220C
:102CA0009B01AC01C301B2010E9407242F89388D1A
:102CB000498D5A8D0E9474240E941C250E94E6248E
:102CC000CB0123C020E030E040E251E4C301B20177
:102CD0000E94AF22A2E0AA16B10484F020E030E006
:102CE00040E251E40E94AF22B2E0AB16B10431F0F1
:102CF00020E030E040E251E40E94AF220E94E6244E
:102D0000CB016AE070E00E941027181619062CF01B
:102D1000033029F09920B9F00CC0033051F4E1E000
:102D2000F0E0EC0FFD1FE10FF11D60E1680F608323
:102D300007C0E1E0F0E0EC0FFD1FE10FF11D808323
:102D40001F5F99249394143050F40F5FE1E02E1A22
:102D50003108FFEFAF1ABF0A073009F065CFCE0187
:102D600001960E94DA0A39C580913B0490E0E81789
:102D7000F907A1F1EE0FFF1FE75BFE4F8081809303
:102D80003D04918190933E0410933B0461E00E94C6
:102D9000550A61E080913E040E94550A61E08091ED
:102DA0003D040E94660961E080913E040E9466092C
:102DB00080E40E94F2098CE80E94F209E1E4F4E068
:102DC000119224E0E135F207D9F781E080933F04C6
:102DD0001092400481E494E00E9495098091A90139
:102DE000282F30E0813009F058C14091AA0150E00D
:102DF0008091AB012091AC0130E06DEA71E0F6EE1C
:102E0000EF2EF1E0FF2EF7018F01065E1140021751
:102E100013072CF4DB019D91BD019193F5CFF901CE
:102E2000EA51FE4F108291E090934004E6E5F4E011
:102E300020E030E0D7019D917D01992339F02331C5
:102E4000310521F091932F5F3F4FF4CF309355041C
:102E500020935404F901E75CFB4F158E4131510575
:102E600014F040E150E050935204409351048031FB
:102E70000CF08FE087FD8FEF8093530441155105CF
:102E800009F469C0E1E4F4E060E070E0962F6417B3
:102E9000750744F46F5F7F4F6131710509F4C7C056
:102EA0001192F4CF603109F4C2C0F12C77E0E72E23
:102EB000E0E2DE2E6F2D70E0621773070CF042C067
:102EC000C12CDB01AA5ABB4FEC9CA0011124465136
:102ED0005F4FFA011491103439F1B4900C91002E27
:102EE000000C110BEB2DF0E00E171F07D9F4F7E0E3
:102EF000CF9ED001112400E010E01196FD01E00FFB
:102F0000F11FE651FF4FC490E92FF0E0E75CFB4F63
:102F1000C0869F5F903141F00F5F1F4F0630110553
:102F200069F702C0C394D0CFFA014491403429F428
:102F3000FB01E75CFB4FD58EFA94F394903109F0D6
:102F4000B9CF75C0E92FF0E0E75CFB4F10869F5FBB
:102F50009031C1F76CC02115310549F4E1E4F4E08A
:102F600021E534E011922E173F07E1F760C010927F
:102F700052041092510440E050E090E007E0F02E3F
:102F800060E2E62E421753070CF048C0D12CDA015C
:102F9000AA5ABB4FFD9CB001112466517F4FFB0123
:102FA0001491103439F1C4900C91002E000C110BC7
:102FB000EC2DF0E00E171F07D9F4F7E0DF9ED001EB
:102FC000112400E010E01196FD01E00FF11FE65121
:102FD000FF4FD490E92FF0E0E75CFB4FD0869F5F76
:102FE000903140F40F5F1F4F0630110569F702C0A2
:102FF000D394D0CFFB016491603431F4FA01E75CE3
:10300000FB4FE58E415051094F5F5F4F903108F4FF
:10301000B9CF109252041092510409C0E92FF0E088
:10302000E75CFB4F10869F5F9031C1F7F2CF082E0F
:10303000000C990B27E030E0281B390BE1E4F4E0A9
:1030400037FD13C041E554E08081022E01C0880F96
:103050000A94EAF781934E175F07B1F780913F0416
:103060008111DEC2E1E4F4E010C021E534E007970D
:10307000408150E0082E02C0559547950A94E2F72A
:1030800041932E173F07A1F7E9CF80818095819367
:1030900024E0E135F207C9F7C3C2823009F093C0DA
:1030A0002091AA01F090AB01ACEAB1E06AE072E0D5
:1030B000EAEFF1E08D9181936E177F07D9F7203108
:1030C0000CF08BC387E08F150CF487C380913F040D
:1030D0004F2D0F2C000C550B022E000C330B8823A8
:1030E000C1F188E090E0841B950BEFEFEE2E01C05C
:1030F000EE0C8A95EAF7D901A75CBB4FEAEFF1E045
:103100002A5F314000271127041B150BC9018E0FC0
:103110009F1F97FD18C01896DC901897DE208081BD
:103120001F1444F490E0042E02C0959587950A94EC
:10313000E2F705C0002E01C0880F0A94EAF78D2936
:1031400018968C931897119631966E177F07F1F6A3
:1031500067C288E090E0841B950BEFEFEE2E01C074
:10316000EE0C8A95EAF7D901A75CBB4FEAEFF1E0D4
:103170002A5F314000271127041B150BC9018E0F50
:103180009F1F97FD1AC01896DC901897DE2080814B
:1031900090E0809590951F143CF4042E02C0959504
:1031A00087950A94E2F705C0002E01C0880F0A94A3
:1031B000EAF78D2918968C931897119631966E1709
:1031C0007F07E1F62DC22330310509F090C0209130
:1031D000AA018091AB014091AC013AE0632F0E94BB
:1031E000F026592F90E0FC01EE0FFF1F8E0F9F1F5E
:1031F000FC01E35CFC4FE491E0934104FC01E25CE0
:10320000FC4FE491E0934204FC01E15CFC4FE4914B
:10321000E093430410924404E52FF0E0CF01880FBF
:10322000991F8E0F9F1FFC01E35CFC4FE491E0931C
:103230004504FC01E25CFC4FE491E0934604FC0190
:10324000E15CFC4FE491E0934704842F0E94F02658
:10325000392F90E0FC01EE0FFF1F8E0F9F1FFC0126
:10326000E35CFC4FE491E0934A04FC01E25CFC4F18
:10327000E491E0934B04FC01E15CFC4FE491E093AA
:103280004C0410924D04E32FF0E0CF01880F991FFA
:103290008E0F9F1FFC01E35CFC4FE491E0934E0412
:1032A000FC01E25CFC4FE491E0934F04FC01E15C23
:1032B000FC4FE491E0935004222331F088E28093A4
:1032C00048048093490404C01092480410924904B1
:1032D00080913F048111A4C1E1E4F4E021E534E0F0
:1032E0008081809581932E173F07D1F799C12430B3
:1032F000310509F072C28091AA0180939E018091EC
:10330000AB0180939F018091AC018093A0018091DB
:10331000AD018093A101C0909E01D0909F01E090EB
:10332000A001F090A10146015701B7FAB094B7F897
:10333000B09420E030E0A901C701B6010E94492203
:10334000082F001F0027001F87FF05C0782C692C5D
:103350005A2C4B2C04C07C2C6D2C5E2C4F2C13E073
:1033600064E0362E8B8D9C8DAD8DBE8D8D879E87B6
:10337000AF87B88B20E03EE34CE156E4C701B601CD
:103380000E94742587FD03C089E08D8713C020E06B
:1033900030EE49E754ECC701B6010E9449221816E5
:1033A00034F4B12C60E070E080E09FE307C08BE074
:1033B0008D8789E08E878F87888BC2C01B1541F06F
:1033C00020E030E040E251E40E947424B394F6CF50
:1033D000272D362D452D542D0E9408244B015C01CC
:1033E0000E94ED249B01AB01E0E0CA016AE070E0BD
:1033F0000E94FC26A1E0B0E0AC0FBD1FAE0FB11DD6
:103400009AE0699F401911244C93EF5FAB01672B41
:1034100061F79E2F900F812F890F853018F0132DA3
:10342000191BA0CF94E0981B002349F0DE01A90FDF
:10343000B11D9BE01D969C9305E0902F981B8E2F4D
:103440000E2F090F902F981B882369F0EDE0F0E014
:10345000EC0FFD1FE90FF11DDE01A80FB11D9C91BE
:1034600090838150EFCF112309F46AC0B90180E045
:1034700090E00E944E229B01AC01C501B4010E9464
:1034800007246B01E82EF92E033061F420E030E0D0
:1034900040E251E40E94AF220E94E624672BF1F43F
:1034A0008CE08ACF023061F420E030E048EC52E456
:1034B0000E94AF220E94E624672B81F48CE07BCF30
:1034C000013061F420E030E04AE754E40E94AF228A
:1034D0000E94E624672B11F48CE06CCFBB24B394DC
:1034E000B00EEDE0F0E0EC0FFD1FE00FF11D8AE003
:1034F0008083115028F120E030E040E251E4B60131
:10350000C7010E94AF226B017C010E94E62401E00A
:103510000B0DEDE0F0E0EC0FFD1FEB0DF11D6083F6
:10352000072E000C880B990B0E9450229B01AC01C6
:10353000C701B6010E9407246B017C01B02ED9CFD0
:10354000ED85F0E0CF01880F991F8E0F9F1FFC01C2
:10355000E35CFC4FE491E0934104FC01E25CFC4F2E
:10356000E491E0934204FC01E15CFC4FE491E093C0
:10357000430410924404EE85F0E0CF01880F991FB8
:103580008E0F9F1FFC01E35CFC4FE491E093450428
:10359000FC01E25CFC4FE491E0934604FC01E15C39
:1035A000FC4FE491E093470410924804EF85F0E06B
:1035B000CF01880F991F8E0F9F1FFC01E35CFC4F0A
:1035C000E491E0934904FC01E25CFC4FE491E09358
:1035D0004A04FC01E15CFC4FE491E0934B0410923F
:1035E0004C04E889F0E0CF01880F991F8E0F9F1FD0
:1035F000FC01E35CFC4FE491E0934D04FC01E25CD0
:10360000FC4FE491E0934E04FC01E15CFC4FE4913B
:10361000E0934F041092500480913F04882329F0D6
:1036200081E494E00E949509D8C0E1E4F4E021E54A
:1036300034E08081809581932E173F07D1F7F0CF3A
:103640008091DE0390E0E817F90761F0EE0FFF1FAD
:10365000E75BFE4F80818093DC0381818093DD03F3
:103660001093DE0311E08091A901811101C010E0E7
:1036700061E05DC06DE971E0CE010D960E94050428
:103680000091A40110E00350110982EAE82E81E0C4
:10369000F82EC701825A9140801791075CF4D70138
:1036A00016966C91CE010D960E94AA03BFEFEB1AFD
:1036B000FB0AEFCF1A8219821C821B821E821D8296
:1036C0006D857E856115710531F049895A89CE0174
:1036D00001960E94DA03CE0101960E94DB0B8981DC
:1036E0009A810E94C22740E050E06DE971E0CE016E
:1036F0000D960E94DA038D859E850E94C2276DC0BB
:103700008091DE0390E0E817F90761F0EE0FFF1FEC
:10371000E75BFE4F80818093DC0381818093DD0332
:103720001093DE031091A90161E0123040F4809102
:10373000DC030E94550A612F8091DC030FC0123018
:1037400009F460E08CED93E00E94330546C061E02F
:10375000812F0E94550A6091A901812F0E9466095C
:103760003CC061E0812F0E94550A6091A90170E080
:10377000812F0E942B0B31C086E090E00E946B07E6
:103780008C0188E090E00E946B07101611061CF572
:10379000AC01990F660B770BC8010E948C0D1DC000
:1037A0001091A901153BC8F4CF010E94140F812F7D
:1037B00090E00E94900E11C00E94A40C0EC060E028
:1037C00070E088EE93E00E94F90560E070E080EE22
:1037D00093E00E94F9050E94B80C0E943E081092E6
:1037E0000C0287E00E948A0B8C01FF24F39485363B
:1037F00091050CF0F12CF0921F0280911E02F81638
:1038000009F479C080918004873009F01EC280914C
:103810008104823009F019C2F0921E0205361105AA
:103820000CF069C080911D0281111FC081E080935E
:103830001D0288EC90E090930201809301010E94A8
:103840007A07F8944CE251E060E070E08AE491E09D
:103850000E948C0D78940E94B80C40E060E080E0FB
:103860000E94230D40E06AE020C0813001F582E033
:1038700080931D0288EC90E09093020180930101F7
:103880000E947A07F8944CE251E060E070E08AE42C
:1038900091E00E948C0D78940E94B80C40E060E0AA
:1038A00080E00E94230D4AE060E080E020C082308A
:1038B00011F510921D028CED90E09093020180931F
:1038C00001010E947A07F8944CE251E060E070E058
:1038D00086E291E00E948C0D78940E94B80C40E042
:1038E00060E080E00E94230D4AE06AE08AE00E94E6
:1038F000230D0E94C40C10911D02113091F128F08B
:10390000123009F4A9C00C942E1110911202123039
:1039100099F048F41123C9F0113011F00C942E11D4
:103920000E94FE070BC0143069F0183011F00C949F
:103930002E110E948D0702C00E94EB071093110206
:103940000C942E110E94BF07F9CF80911102882399
:1039500011F40C942E11109211020E947A070C940B
:103960002E110E94A40CC0907604D0907704E090B1
:103970007804F0907904DC01CB018C199D09AE0923
:10398000BF094897A105B10510F010937504809107
:103990007504882339F062ED7FE080E090E00E94BA
:1039A0000F0E0AC060917A0470917B0480917C04B0
:1039B00090917D040E94E6246115710581059105B1
:1039C00021F46CED7FE080E090E00E94502220E046
:1039D00030E048E652E40E9474240E94ED24162F41
:1039E00080911302811105C00E94A40C81E0809394
:1039F000130286E00E948A0BBC01990F880B990B79
:103A0000611571058105910511F00E9440220E9407
:103A1000F22111501F3018F00E94FE0715C022E05D
:103A200030E040E050E00E946D23662329F06130D1
:103A300059F40E948D0702C00E94BF0760E273E044
:103A400080E090E00E94A10B64E670E080E090E0EE
:103A50000E94A10B0C942E1160E080916A040E94D8
:103A6000550A80916A040E943D098C018AE694E01F
:103A70000E947E0E21E030E0012B11F420E030E0C6
:103A8000220F331F282B8091010190910201873E64
:103A9000910534F086EE90E090930201809301014D
:103AA0002230D9F0233059F1213051F00E94FE0725
:103AB000EAE0F0E0F0931C02E0931B020C942E115C
:103AC0000E94FE0780911B0290911C02823091059A
:103AD00014F40C942E1101970CC00E94FE078091E3
:103AE0001B0290911C028431910514F00C942E114C
:103AF000019690931C0280931B020C942E118091CE
:103B00001B0290911C028A30910521F40E94EB0760
:103B10000C942E1100910101109102010A975CF49E
:103B2000C8016BEF7FEF0E94102788EE93E00E94A0
:103B3000F905B8010DC066277727601B710B88EE69
:103B400093E00E94F905C80165E070E00E9410272B
:103B500080EE93E00E94F9050C942E11109212024F
:103B60000E94A40C6093D6017093D7018093D80172
:103B70009093D90180911D0281110CC08091800425
:103B8000873051F580918104823031F54AE06AE056
:103B90008AE01CC0813059F480918004873009F597
:103BA000809181048230E9F440E06AE00EC0823006
:103BB00011F00C94E511809180048730B9F4809164
:103BC0008104823099F44AE060E080E00E94230D95
:103BD0000E94C40C0C94E51162E087E00E94430D42
:103BE000D5CF62E087E00E94430DDECF62E087E040
:103BF0000E94430DE8CFE82F0C9429130E94A40CD7
:103C0000DC01CB018C199D09AE09BF098E3E9240A3
:103C1000A105B10510F40C944C130C946313880F98
:103C2000991FFC01E75BFE4F80818093DC0381815B
:103C30008093DD031093DE032093DF030C947C1448
:103C4000812F0E94430D0C94841562E087E00E944E
:103C5000430DE2CD8093120280918004873009F0F9
:103C6000CFC180918104823009F0CAC140E060E098
:103C700080E00E94230D40E08ACF81349105A105A8
:103C8000B10508F0C3C08C309105A105B105A9F4B8
:103C900081E080930001F8944CE251E060E070E034
:103CA00086E291E00E948C0D789485E790E09093F5
:103CB0000201809301010C94E5118D309105A1055D
:103CC000B10508F060C088309105A105B10581F407
:103CD00081E080930001F8944CE251E060E070E0F4
:103CE00089E891E00E948C0D78948AEB90E0DFCF18
:103CF00089309105A105B105F9F481E080930001B7
:103D000080911D0281110C94E51188E080931202CC
:103D100080918004873009F07DC1809181048230D8
:103D200009F078C140E060E080E00E94230D20E0CF
:103D30004AE06AE080E024C00797A105B10511F0D0
:103D40000C94E51181E08093000180911D028111A6
:103D50000C94E51184E080931202809180048730F6
:103D600009F05DC180918104823009F058C140E0C2
:103D700060E080E00E94230D20E04AE06AE081E0FC
:103D80000E94FC0C25CF89319105A105B105E9F40C
:103D900081E08093000180911D0281110C94E51156
:103DA00082E08093120280918004873009F02DC157
:103DB00080918104823009F028C140E060E080E019
:103DC0000E94230D40E060E0E3CE8C319105A10517
:103DD000B10559F481E080930001F8944CE251E080
:103DE00060E070E089EB91E07DCF4897A105B105D7
:103DF00011F00C94E51181E080930001F8944CE2FD
:103E000051E060E070E08AE491E04CCF87349105A6
:103E1000A105B10541F581E08093000188EC90E0B7
:103E2000909302018093010182E080931D020E9421
:103E30007A07F8944CE251E060E070E08EE591E0A2
:103E40000E948C0D789480918004873009F0D3C053
:103E500080918104823009F0CEC040E060E080E0D3
:103E60000E94230DB0CE88349105A105B10508F05C
:103E70006FC085349105A105B10539F581E08093C6
:103E800000018CED90E0909302018093010110926B
:103E90001D020E947A07F8944CE251E060E070E065
:103EA00086E291E00E948C0D7894809180048730A6
:103EB00009F097C080918104823009F092C040E0FF
:103EC00060E080E00E94230D61CE86349105A1055B
:103ED000B10538F181E08093000128EC30E03093A7
:103EE00002012093010180931D020E947A07F89439
:103EF0004CE251E060E070E08AE491E00E948C0DB9
:103F0000789480918004873009F070C0809181049A
:103F1000823009F06BC040E060E080E00E94230D39
:103F200043CE82349105A105B10511F00C94E51141
:103F300081E080930001F8944CE251E060E070E091
:103F40008CE292E00E948C0D78948FEF90E0AFCEDF
:103F500082359105A105B10559F481E080930001F6
:103F6000F8944CE251E060E070E08DE492E0EACF3A
:103F700083359105A105B10590F48A349105A10519
:103F8000B10511F00C94E51181E080930001F894E3
:103F90004CE251E060E070E085E992E0D3CF8A35F1
:103FA0009105A105B10559F481E080930001F894D1
:103FB0004CE251E060E070E08FEE91E093CE8E3500
:103FC0009105A105B10511F00C94E51181E08093F4
:103FD0000001F8944CE251E060E070E08EE591E081
:103FE00061CE62E087E00E94430D69CF62E087E026
:103FF0000E94430D90CF62E087E00E94430D2DCFD9
:1040000062E087E00E94430D31CE62E087E00E94CB
:10401000430DD3CE62E087E00E94430D83CE62E081
:1040200087E00E94430DA3CEFC0110821182128210
:104030000895CF93DF938091D3039091D4030E948E
:10404000C227C5E1D4E08A8D9B8D0E94C2278C894E
:104050009D890E94C2278091840490918504DF91FC
:10406000CF910C94C2271F93CF93DF931092A70296
:104070001092A60288EE93E0A0E0B0E08093A80240
:104080009093A902A093AA02B093AB0229E231E077
:104090003093A5022093A40225EC30E03093B102C6
:1040A0002093B00224EC30E03093B3022093B202AC
:1040B00020EC30E03093B5022093B40221EC30E0E4
:1040C0003093B7022093B60222EC30E03093B9026D
:1040D0002093B80226EC30E03093BB022093BA0262
:1040E0001092BD021092BE021092BF021092C00246
:1040F00021E030E0309399042093980410929A05BF
:1041000010929B0510929C0510929D0510929E05A1
:1041100010929F051092A0051092A1051092A20581
:104120001092A3051092A4051092A5051092A60561
:104130001092A7051092A9051092A8051092AA0541
:104140001092AB051092AC051092AD051092AE0521
:104150001092AF051092B0051092B1051092B20501
:1041600010928E0410928D0480938F04909390048B
:10417000A0939104B09392048BE391E090938C040C
:1041800080938B0410927E0410927F04109280041E
:10419000ECECF3E0E491E0938A04E8EBF3E0E491E3
:1041A000F0E0EE0FFF1FE255FC4F85919491909344
:1041B00087048093860461E080E00E94550A80E1D4
:1041C00090E0909383048093820480E390E00E94C7
:1041D0002A279093850480938404892B21F485E712
:1041E00091E00E94262980E090E0209182043091A5
:1041F0008304A901440F551F240F351F821793070D
:1042000048F4E0918404F0918504E80FF91F1082CE
:104210000196EBCF10928004C2E0C093810480E14C
:104220008093700481E18093710483E08093720431
:1042300019E010936A04DAE0D0936B04C0936C0425
:1042400089E394E00E9414206DE971E089E294E032
:104250000E9405046DE971E08FE294E00E9405047C
:1042600060E082E00E94550AC09366031092350414
:1042700010923604109237041092380410922004E1
:1042800010921F04109221041092270440E050E085
:104290006DE971E089E294E00E94DA03109228044B
:1042A0000E94FC0D61E083E00E94550A60E083E01B
:1042B0000E946609109211041092120410921304C5
:1042C0008DE094E00E94142088E0809397048AEFA8
:1042D00093E00E94142080EF93E00E94142086E077
:1042E0008093E80387E08093E9031093EA0385E075
:1042F0008093E00384E08093E103D093E2038CEDAC
:1043000093E00E941420809165038C30A0F491E02A
:10431000980F909365038093D90390E0FC01EE0F12
:10432000FF1F8E0F9F1FFC01EF5BFC4F88EB9BE094
:104330009283818303C08FEF8093D90361E971E099
:1043400083ED93E0DF91CF911F910C9405048F9240
:104350009F92AF92BF92CF92DF92EF92FF92CF9354
:10436000DF93EC01688179818A819B8161157105F8
:104370008105910521F464E279ED8BE597E02DE16B
:1043800033EF41E050E00E946D2349015A019B0147
:10439000AC01A7EAB1E40E948C236B017C01ACEE76
:1043A000B4EFA50194010E949A23DC01CB018C0D8E
:1043B0009D1DAE1DBF1DB7FF03C00197A109B048E9
:1043C00088839983AA83BB83BC01CD019F77DF914A
:1043D000CF91FF90EF90DF90CF90BF90AF909F90E4
:1043E0008F9008958F929F92AF92BF92CF92DF925B
:1043F000EF92FF9260910301709104018091050199
:1044000090910601611571058105910521F464E221
:1044100079ED8BE597E02DE133EF41E050E00E942C
:104420006D2349015A019B01AC01A7EAB1E40E9446
:104430008C236B017C01ACEEB4EFA50194010E94CA
:104440009A23DC01CB018C0D9D1DAE1DBF1DB7FF56
:1044500003C00197A109B048809303019093040120
:10446000A0930501B0930601BC01CD019F77FF9099
:10447000EF90DF90CF90BF90AF909F908F90089576
:1044800060930301709304018093050190930601EA
:1044900008950E948B2208F481E00895E89409C0F1
:1044A00097FB3EF490958095709561957F4F8F4F67
:1044B0009F4F9923A9F0F92F96E9BB279395F6957D
:1044C000879577956795B795F111F8CFFAF4BB0FFB
:1044D00011F460FF1BC06F5F7F4F8F4F9F4F16C05F
:1044E000882311F096E911C0772321F09EE8872FE9
:1044F000762F05C0662371F096E8862F70E060E0A5
:104500002AF09A95660F771F881FDAF7880F96951D
:10451000879597F90895990F0008550FAA0BE0E8C1
:10452000FEEF16161706E807F907C0F01216130675
:10453000E407F50798F0621B730B840B950B39F4B5
:104540000A2661F0232B242B252B21F408950A261B
:1045500009F4A140A6958FEF811D811D08950E9449
:10456000C2220C9433230E94252338F00E942C236E
:1045700020F0952311F00C941C230C942223112479
:104580000C9467230E94442370F3959FC1F3950F09
:1045900050E0551F629FF001729FBB27F00DB11DC7
:1045A000639FAA27F00DB11DAA1F649F6627B00D57
:1045B000A11D661F829F2227B00DA11D621F739F40
:1045C000B00DA11D621F839FA00D611D221F749F4E
:1045D0003327A00D611D231F849F600D211D822F95
:1045E000762F6A2F11249F5750409AF0F1F08823BC
:1045F0004AF0EE0FFF1FBB1F661F771F881F9150E9
:104600005040A9F79E3F510580F00C941C230C9458
:1046100067235F3FE4F3983ED4F3869577956795DB
:10462000B795F795E7959F5FC1F7FE2B880F911D12
:104630009695879597F9089597F99F6780E870E0B8
:1046400060E008959FEF80EC089500240A94161608
:10465000170618060906089500240A941216130670
:10466000140605060895092E0394000C11F48823FE
:1046700052F0BB0F40F4BF2B11F460FF04C06F5F1A
:104680007F4F8F4F9F4F089557FD9058440F551FF0
:1046900059F05F3F71F04795880F97FB991F61F0C4
:1046A0009F3F79F087950895121613061406551F3B
:1046B000F2CF4695F1DF08C0161617061806991FA7
:1046C000F1CF86957105610508940895E894BB279C
:1046D00066277727CB0197F90895052E97FB1EF4DF
:1046E00000940E94842357FD07D00E94D62307FC24
:1046F00003D04EF40C948423509540953095219529
:104700003F4F4F4F5F4F08959095809570956195FD
:104710007F4F8F4F9F4F08950E94F823A59F900DC4
:10472000B49F900DA49F800D911D11240895B7FF93
:104730000C948C230E948C23821B930B08952F9240
:104740003F924F925F926F927F928F929F92AF9221
:10475000BF92CF92DF92EF92FF920F931F93CF936E
:10476000DF93CDB7DEB7CA1BDB0B0FB6F894DEBF05
:104770000FBECDBF09942A88398848885F846E842B
:104780007D848C849B84AA84B984C884DF80EE8075
:10479000FD800C811B81AA81B981CE0FD11D0FB67E
:1047A000F894DEBF0FBECDBFED010895A1E21A2E31
:1047B000AA1BBB1BFD010DC0AA1FBB1FEE1FFF1FC5
:1047C000A217B307E407F50720F0A21BB30BE40B15
:1047D000F50B661F771F881F991F1A9469F760955C
:1047E0007095809590959B01AC01BD01CF01089516
:1047F000A29FB001B39FC001A39F700D811D112422
:10480000911DB29F700D811D1124911D0895505866
:10481000BB27AA270E941F240C9433230E94252320
:1048200038F00E942C2320F039F49F3F19F426F42D
:104830000C9422230EF4E095E7FB0C941C23E92F43
:104840000E94442358F3BA17620773078407950739
:1048500020F079F4A6F50C9466230EF4E0950B2E67
:10486000BA2FA02D0B01B90190010C01CA01A001C2
:104870001124FF27591B99F0593F50F4503E68F11D
:104880001A16F040A22F232F342F4427585FF3CF5E
:10489000469537952795A795F0405395C9F77EF42F
:1048A0001F16BA0B620B730B840BBAF09150A1F078
:1048B000FF0FBB1F661F771F881FC2F70EC0BA0FFE
:1048C000621F731F841F48F4879577956795B79586
:1048D000F7959E3F08F0B0CF9395880F08F0992781
:1048E000EE0F9795879508950E9488240C943323A2
:1048F0000E942C2358F00E94252340F029F45F3FAA
:1049000029F00C941C2351110C9467230C9422233E
:104910000E94442368F39923B1F3552391F3951B27
:10492000550BBB27AA2762177307840738F09F5FD0
:104930005F4F220F331F441FAA1FA9F335D00E2E3D
:104940003AF0E0E832D091505040E695001CCAF7AA
:104950002BD0FE2F29D0660F771F881FBB1F26176D
:1049600037074807AB07B0E809F0BB0B802DBF0144
:10497000FF2793585F4F3AF09E3F510578F00C9413
:104980001C230C9467235F3FE4F3983ED4F3869591
:1049900077956795B795F7959F5FC9F7880F911D34
:1049A0009695879597F90895E1E0660F771F881F20
:1049B000BB1F621773078407BA0720F0621B730BD3
:1049C000840BBA0BEE1F88F7E09508950E94ED2442
:1049D0006894B1110C94672308950E944C2388F0C9
:1049E0009F5798F0B92F9927B751B0F0E1F0660FB3
:1049F000771F881F991F1AF0BA95C9F714C0B130F4
:104A000091F00E946623B1E008950C946623672F0D
:104A1000782F8827B85F39F0B93FCCF38695779522
:104A20006795B395D9F73EF490958095709561950B
:104A30007F4F8F4F9F4F08950E945C2590F09F37C6
:104A400048F4911116F00C94672360E070E080E860
:104A50009FEB089526F41B16611D711D811D0C949A
:104A600033250C944E25882371F4772321F0985038
:104A7000872B762F07C0662311F499270DC090511C
:104A8000862B70E060E02AF09A95660F771F881FEA
:104A9000DAF7880F9695879597F908959F3F31F03B
:104AA000915020F4879577956795B795880F911D5C
:104AB0009695879597F908950E944C23A0F0BEE73C
:104AC000B91788F4BB279F3860F41616B11D672FFD
:104AD000782F8827985FF7CF869577956795B11DD2
:104AE00093959639C8F308950E948B2208F48FEFAE
:104AF0000895FA01EE0FFF1F309621053105A1F14F
:104B00006115710561F48038BFE39B0749F1689432
:104B10009038810561F08038BFEF9B0741F0992301
:104B20004AF5FF3FE1053105210519F1E8940894A4
:104B3000E795D901AA2329F4AB2FBE2FF85FD0F354
:104B400010C0FF5F70F4A695E0F7F73950F019F048
:104B5000FF3A38F49F779F930DD00F9007FC905841
:104B6000089546F00C94222360E070E080E89FE313
:104B700008954FE79F775F934F933F932F930E9442
:104B800074262F913F914F915F910E94AF220C9418
:104B9000D12529F416F00C941C230C9466230C9454
:104BA00022230E944C23A8F39638A0F707F80F920F
:104BB000E8942BE33AEA48EB5FE70E94C5220F92A4
:104BC0000F920F924DB75EB70F920E94BC26E8E697
:104BD000F0E00E9403264F915F91EF91FF91E595E0
:104BE000EE1FFF1F49F0FE57E0684427EE0F441FF9
:104BF000FA95E1F74195550B0E9436260F9007FE76
:104C00000C942A260895DF93CF931F930F93FF925E
:104C1000EF92DF927B018C01689406C0DA2EEF01DF
:104C20000E94C222FE01E894A591259135914591FB
:104C30005591A6F3EF010E941F24FE019701A801E0
:104C4000DA9469F7DF90EF90FF900F911F91CF9169
:104C5000DF9108959B01AC0160E070E080E89FE384
:104C60000C9474240C941C230C944E250E944C2309
:104C7000D8F39923C9F3940F511DA3F391505040D9
:104C800094F059F0882332F0660F771F881F9150F7
:104C90005040C1F79E3F51052CF7880F911D969506
:104CA000879597F908955F3FACF0983E9CF0BB273D
:104CB000869577956795B79508F4B1609395C1F798
:104CC000BB0F58F711F460FFE8CF6F5F7F4F8F4F36
:104CD0009F4FE3CF0C94672316F00C944E250C9451
:104CE000222368940C941C230E944C23A8F399233C
:104CF000C1F3AEF3DF93CF931F930F93FF92C92FAE
:104D0000DD2788232AF02197660F771F881FDAF79F
:104D100020E030E040E85FEB9FE3883920F0803E00
:104D200038F021968F770E940824E0E9F0E004C073
:104D30000E940824EDEBF0E00E9403268B01BE01E7
:104D4000EC01FB2E6F5771097595771F880B990B36
:104D50000E94502228E132E741E35FE30E94C22231
:104D6000AF2D9801AE01FF900F911F91CF91DF9170
:104D70000E941F240C943323FA01DC01AA0FBB1FED
:104D80009B01AC01BF5728F42227332744275078D2
:104D900020C0B75190F4AB2F002446953795279546
:104DA000011CA395D2F3002071F0220F331F441F82
:104DB000B395DAF30ED00C94072461307105A0E8A6
:104DC0008A07B94630F49B01AC016627772788270C
:104DD0009078309621F02083318342835383089565
:104DE000991B79E004C0991F961708F0961B881F3D
:104DF0007A95C9F780950895AA1BBB1B51E107C09E
:104E0000AA1FBB1FA617B70710F0A61BB70B881F5A
:104E1000991F5A95A9F780959095BC01CD010895E9
:104E200097FB072E16F4009407D077FD09D00E9457
:104E3000FC2607FC05D03EF4909581959F4F089580
:104E4000709561957F4F0895EE0FFF1F0590F491C7
:104E5000E02D09940F931F93CF93DF938230910538
:104E600010F482E090E0E091B605F091B70520E003
:104E700030E0A0E0B0E0309719F14081518102812B
:104E8000138148175907C8F08417950769F41097DC
:104E900031F012960C93129713961C9327C000932F
:104EA000B6051093B70522C02115310519F0421738
:104EB000530718F49A01BD01EF01DF01F801DBCFC0
:104EC00021153105F9F0281B390B2430310580F408
:104ED0008A819B816115710521F0FB019383828397
:104EE00004C09093B7058093B605FE01329644C086
:104EF000FE01E20FF31F8193919322503109398310
:104F000028833AC02091B4053091B505232B41F494
:104F10002091090130910A013093B5052093B40521
:104F200020910701309108012115310541F42DB779
:104F30003EB740910B0150910C01241B350BE091C1
:104F4000B405F091B505E217F307A0F42E1B3F0B53
:104F50002817390778F0AC014E5F5F4F24173507EB
:104F600048F04E0F5F1F5093B5054093B4058193F1
:104F7000919302C0E0E0F0E0CF01DF91CF911F916B
:104F80000F910895CF93DF93009709F481C0FC013E
:104F9000329713821282A091B605B091B70510978F
:104FA00081F420813181820F931F2091B4053091CB
:104FB000B5052817390751F5F093B505E093B40509
:104FC00067C0ED0120E030E0CE17DF0740F44A81F2
:104FD0005B819E0141155105F1F0EA01F5CFD383C4
:104FE000C28340815181840F951FC817D90759F496
:104FF00088819981840F951F0296918380838A818D
:105000009B81938382832115310529F4F093B705A1
:10501000E093B6053DC0E901FB83EA8349915991CC
:10502000C40FD51FEC17FD0761F480819181840FB7
:10503000951F0296E90199838883828193819B83DE
:105040008A83E0E0F0E012968D919C91139700978F
:1050500019F0FD01DC01F7CF8D919C9111979D0115
:105060002E5F3F4F820F931F2091B4053091B505FD
:105070002817390769F4309729F41092B705109270
:10508000B60502C013821282B093B505A093B40591
:10509000DF91CF910895A0E0B0E0E1E5F8E20C9453
:1050A000A323EC01009721F4CB010E942A27B4C06E
:1050B000FC01E60FF71F9C0122503109E217F307AC
:1050C00008F4A8C0D9010D911C9111970617170774
:1050D000B0F00530110508F49BC0C801049786178D
:1050E000970708F495C002501109061B170B01938E
:1050F00011936D937C93CF010E94C22789C05B01FD
:10510000A01AB10A4C01800E911EA091B605B09173
:10511000B705612C712CE12CF12C109709F446C0D5
:105120008D919C911197A815B905B1F56C0142E0DC
:10513000C40ED11CCA14DB0478F14C018A189B08F8
:10514000640142E0C40ED11C1296BC9012971396D3
:10515000AC91B5E0CB16D10440F0B282A38391822A
:105160008082D9016D937C9309C00E5F1F4F800F21
:10517000911FF90191838083EB2DFA2FE114F10443
:1051800031F0D7011396FC93EE93129741C0F09340
:10519000B705E093B6053CC06816790608F43C01F3
:1051A0007D0112960D90BC91A02DB7CF8091B405D2
:1051B0009091B50588169906E1F466167706C8F44D
:1051C0008091070190910801009741F48DB79EB737
:1051D00040910B0150910C01841B950BE817F907C6
:1051E000C8F4F093B505E093B405F90171836083C9
:1051F0000FC0CB010E942A277C01009759F0A8011B
:10520000BE010E941629CE010E94C227C70104C018
:10521000CE0102C080E090E0CDB7DEB7EEE00C94A6
:10522000BF2381E090E0F8940C945629FB01DC0147
:1052300002C001900D9241505040D8F70895FB01F3
:10524000DC0101900D920020E1F708950F931F9368
:10525000CF93DF93E091BA05F091BB05238121FF45
:105260001BC08C01D0E0C0E0F80181918F016091FA
:10527000BA057091BB05DB011896ED91FC91199769
:10528000882331F00995892B79F3DFEFCFEFECCF4D
:105290008AE00995892B19F08FEF9FEF02C08D2FBF
:1052A0009C2FDF91CF911F910F91089511E0C1EFD5
:1052B000D1E004C0FE010E9424272196C23FD107FD
:0652C000C9F7F894FFCFCE
:1052C60001C800010000000000BE0520000C0C0C07
:1052D6000C202020200E000F0010001100120013D9
:1052E600001400150000000000AE021C024602F584
:1052F60002770255026902000000006C0361037E1A
:105306000353035A035703540300000B0C090A10F6
:10531600110E0F00000814150D08140607050400E9
:10532600000000000000000000000056657273696E
:105336006F6E3A20005468657265206973206E6F3F
:105346007420656E6F756768207370616365210DE3
:0E5356000030362E30312E303039000D0A0076
:00000001FF
