:100000000C945A000C9477000C9477000C947700B1
:100010000C9477000C9477000C9477000C949B015F
:100020000C9477000C9477000C9477000C94770074
:100030000C9477000C94C9000C9477000C94770012
:100040000C9455010C9477000C9477000C94770075
:100050000C9477000C94C3020C9477000C947700F6
:100060000C9477000C9477000C9477000C94770034
:100070000C9477000C9477000C9477000C94770024
:100080000C9477000C9477000C9477000C94770014
:100090000C9477000C9477000C9477000C94770004
:1000A0000C9477000C9477000C9477000C947700F4
:1000B0000C94770011241FBECFEFD8E0DEBFCDBF78
:1000C00011E0A0E0B1E0E4EDFBE002C005900D928C
:1000D000A431B107D9F721E0A4E1B1E001C01D923C
:1000E000A935B207E1F70E9400020C94E8050C94D0
:1000F0000000089563EF73E082E00E94AF0063EFB9
:1001000073E081E00E94AF0062E370E080E090E085
:100110000E946C0270E060E082E00E94AF0070E03C
:1001200060E081E00E94AF006EE977E080E090E05F
:100130000C946C0287E680931A010E9435010E949C
:10014000970270E060E081E00E94BE0170E060E034
:1001500082E00E94BE0181E08093190108958330FE
:1001600049F018F4813020F40895843051F0089556
:100170000C94BE0185B18F7790E8672B39F490E03D
:1001800005C085B18F7B90E4672BC9F3892B85B9B6
:1001900008951F920F920FB60F9211242F933F9341
:1001A0008F939F93AF93BF93809115019091160108
:1001B000A0911701B09118013091140123E4230F8D
:1001C0002D37C8F48F5B9F4FAF4FBF4F2093140163
:1001D0008093150190931601A0931701B093180115
:1001E000BF91AF919F918F913F912F910F900FBE33
:1001F0000F901F90189526EC230F8E5B9F4FAF4FEB
:10020000BF4FE4CFE82FF0E0EC5FFE4F8081282F56
:100210002695982F96959695382F3695369536953E
:1002200061506A3000F5E62FF0E0E75EFE4F0C9477
:10023000E2052301260128012B012D0130012901AE
:1002400024012E013101832F80950895892FFCCF41
:10025000822F831BF9CF822FF7CF822F830FF4CF0A
:10026000822F890FF1CF80E008958BB188668BB91A
:100270008AB188668AB984B1866C84B983EA84BD00
:1002800092E095BDEEE6F0E080818160808383E2BC
:100290008093B0009093B10080E88093B300E0E7D2
:1002A000F0E080818260808308951F920F920FB6E4
:1002B0000F9211242F933F934F935F936F937F93EC
:1002C0008F939F93AF93BF93EF93FF9380911B0105
:1002D000882309F12A98809125019091240189238E
:1002E0009091230189238F3F09F0299A10921B01D5
:1002F0000E940A02FF91EF91BF91AF919F918F9160
:100300007F916F915F914F913F912F910F900FBE11
:100310000F901F90189529988091220190912101AA
:1003200089239091200189238F3F09F02A9A81E047
:1003300080931B01DDCF1F920F920FB60F921124F5
:100340008F9380911B01882381F08091250187BDC7
:100350008091240188BD809123018093B4008F9106
:100360000F900FBE0F901F9018958091220187BDAE
:100370008091210188BD80912001EFCFFF920F93E2
:100380001F93CF93DF93F82EEB01609102018D2F25
:100390008F700E940201082FCE0124E09695879568
:1003A0002A95E1F7609101018F700E940201182FD8
:1003B000609100018C2F8F700E94020191E0F91270
:1003C00010C0D0931F01C0931E010093250110930C
:1003D000240180932301DF91CF911F910F91FF9012
:1003E000089592E0F912F7CFD0931D01C0931C013C
:1003F000009322011093210180932001ECCF0895F6
:100400000E94FF0178940E949A000E9479000E9445
:100410007A00FDCF80912A0190912B0193959093C2
:100420002B0180932A0180912A0190912B01883E13
:100430009340E8F080912A0190912B01885E9340CF
:1004400090932B0180932A0180912601909127019E
:10045000A0912801B09129010196A11DB11D8093A1
:10046000260190932701A0932801B09329010895B4
:100470000F931F93AB01BC014150510961097109F0
:10048000F8948091260190912701A0912801B091C4
:1004900029018A019B01081B190B2A0B3B0BD9016F
:1004A000C801B7FD09C083B7816083BF7894889580
:1004B00083B78E7F83BFE4CF78941F910F91089507
:1004C0002FB7F8946091260170912701809128013F
:1004D000909129012FBF0895CF92DF92EF92FF9262
:1004E0006B017C010E9460026C0D7D1D8E1D9F1DA5
:1004F000FF90EF90DF90CF900C943802982F91707E
:10050000633330F091110AC0883040F48E5F089553
:10051000992311F08930D0F380E0089581E00895A7
:1005200080912E0190912E019817E1F3089581E0BA
:100530008093030183E0809355018DEC80937A00D2
:1005400087B18C6387B9209A88B1836088B93A9A59
:100550003B9A3C9A689A699A6B9A209A80911A0100
:10056000873609F43D980FB607FC0C94900281EE93
:1005700090E09093500180934F0190933E018093BF
:100580003D01089508951F920F920FB60F92112406
:100590002F933F934F935F936F937F938F939F938B
:1005A000AF93BF93CF93DF93EF93FF93C091780006
:1005B000D0917900789480915501E0915601833073
:1005C00009F44EC208F057C0813009F460C082308F
:1005D00009F4C9C18091560181112BC08091550148
:1005E000833008F0DDC283E080935501809155018E
:1005F0008330F8F40E94C20280912E018F5F8093B5
:100600002E018091530190915401880F991F90936E
:1006100054018093530180910301882351F010927B
:10062000030180913F01909140019093520180938A
:1006300051018091530190915401C80FD91FD0935B
:100640005401C093530180917A00806480937A00B2
:10065000FF91EF91DF91CF91BF91AF919F918F91DA
:100660007F916F915F914F913F912F910F900FBEAE
:100670000F901F901895843009F456C2853009F008
:10068000A9CFE11185C28EE480937C00F6C1E033EE
:1006900008F03BC0F0E0E15BFC4F0C94E205E7039F
:1006A00085037F03850385039003E7038503B80370
:1006B00085038503BF0385038503850385038503C0
:1006C0008503E7038503EF0385038503F6037C04B5
:1006D00085031E048503850325047C0485034D04DE
:1006E00085038503540485038503850385038503FA
:1006F00085037C0485038404850385038B04D093E0
:100700005801C0935701429A3A9A809156018F5FDF
:1007100080935601803308F45DCF109256015ACF72
:100720008091570190915801C817D907F0F48C1B9C
:100730009D0B9093580180935701909342018093B1
:10074000410142983A98609157017091580176950D
:1007500067957695679580912F010E947E0290E0C3
:100760009093300180932F01D0CF90E080E0E1CFD3
:10077000D0935801C0935701439A3B9AC6CF8091BA
:10078000570190915801C817D907F0F48C1B9D0BA5
:1007900090935801809357019093440180934301B3
:1007A00043983B98609157017091580176956795F1
:1007B00076956795809131010E947E0290E090933A
:1007C000320180933101A1CF90E080E0E1CF80E45D
:1007D00080937C004098389A3898409A96CFD0936E
:1007E0005801C0935701449A3C9A8FCF809157018A
:1007F00090915801C817D907F0F48C1B9D0B90936A
:100800005801809357019093460180934501449885
:100810003C9860915701709158017695679576954F
:100820006795809133010E947E0290E0909334019D
:10083000809333016ACF90E080E0E1CFD0935801FC
:10084000C0935701709A689A60CF80915701909138
:100850005801C817D907F0F48C1B9D0B90935801D1
:10086000809357019093480180934701709868984E
:1008700060915701709158017695679576956795C7
:10088000809135010E947E0290E090933601809322
:1008900035013BCF90E080E0E1CFD0935801C09389
:1008A0005701719A699A31CF8091570190915801FF
:1008B000C817D907F0F48C1B9D0B909358018093B7
:1008C000570190934A01809349017198699860910A
:1008D0005701709158017695679576956795809147
:1008E00037010E947E0290E0909338018093370197
:1008F0000CCF90E080E0E1CF81E480937C004198D0
:10090000399A3998419A01CFD0935801C093570131
:10091000739A6B9AFACE8091570190915801C8173B
:10092000D907F0F48C1B9D0B9093580180935701CD
:1009300090934C0180934B0173986B986091570191
:1009400070915801769567957695679580913901F4
:100950000E947E0290E090933A0180933901D5CEB7
:1009600090E080E0E1CFEE3108F0CFCEF0E0E5544A
:10097000FB4F0C94E205D9048503850385038503A9
:10098000850385038503850385038503850310059A
:10099000150515051505ED04060585038503850375
:1009A0008503850385031005150515051505200527
:1009B0002B05429A439A449A709A719A739A3A9A7A
:1009C0003B9A3C9A689A699A6B9A38983998409AF7
:1009D000419A80E480937C0098CE80915701909159
:1009E00058019695879540912F01509130016FE005
:1009F000649F9001659F300D1124820F931F07960D
:100A000064E0969587956A95E1F715C08091570146
:100A1000909158019093300180932F0181E4DACFB7
:100A2000D0935801C093570170CE80915701909197
:100A300058018C0F9D1F909358018093570165CEEC
:100A40008091570190915801969587954091350175
:100A500050913601CCCF809157019091580115CF1C
:100A600086ECEE2309F410CEE63069F486EC809330
:100A70007C0046983E9A3E98469A809156018F5F38
:100A800080935601A7CDE83029F4D0935801C09344
:100A90005701F3CFE93059F48091570190915801F3
:100AA0008C0F9D1F9093580180935701E6CFEA3039
:100AB00099F3EB30A9F480915701909158018C0F74
:100AC0009D1F909358018093570196958795969511
:100AD000879590932D0180932C01209A289ACDCF51
:100AE000EE3099F2EF30C1F2E031B1F2E13129F6A6
:100AF00080915701909158018C0F9D1F9093580140
:100B000080935701969587959695879590934E017A
:100B100080934D0180912C0190912D0190933C0187
:100B200080933B012898F9CD88ECEE2309F4ACCDF5
:100B3000E43009F4AACFE53009F4AECFE63009F489
:100B4000ABCFE73009F099CF209157013091580190
:100B50002C0F3D1F309358012093570130934001D3
:100B600020933F014091510150915201E49FC001F7
:100B7000E59F900D1124820F931F049633E0969504
:100B800087953A95E1F79093520180935101C5CD35
:100B9000E23009F072CFD0933E01C0933D01BDCD4C
:100BA000853010F48F5F20CD80911901813011F4D0
:100BB00081E01ACD823009F417CD8330C9F3109249
:100BC000550114CDEE0FFF1F0590F491E02D09940F
:040BD000F894FFCFC7
:100BD4000A0A0501000204080C121A23303F50626D
:040BE400768EAAC897
:00000001FF